{"abi":[{"inputs":[{"internalType":"uint256","name":"minimum","type":"uint256"},{"internalType":"address","name":"creator","type":"address"}],"stateMutability":"nonpayable","type":"constructor"},{"inputs":[{"internalType":"uint256","name":"index","type":"uint256"}],"name":"approveRequest","outputs":[],"stateMutability":"nonpayable","type":"function"},{"inputs":[{"internalType":"address","name":"","type":"address"}],"name":"approvers","outputs":[{"internalType":"bool","name":"","type":"bool"}],"stateMutability":"view","type":"function"},{"inputs":[],"name":"approversCount","outputs":[{"internalType":"uint256","name":"","type":"uint256"}],"stateMutability":"view","type":"function"},{"inputs":[],"name":"contribute","outputs":[],"stateMutability":"payable","type":"function"},{"inputs":[{"internalType":"uint256","name":"index","type":"uint256"}],"name":"finalizeRequest","outputs":[],"stateMutability":"payable","type":"function"},{"inputs":[],"name":"minContribution","outputs":[{"internalType":"uint256","name":"","type":"uint256"}],"stateMutability":"view","type":"function"},{"inputs":[],"name":"owner","outputs":[{"internalType":"address","name":"","type":"address"}],"stateMutability":"view","type":"function"},{"inputs":[{"internalType":"uint256","name":"","type":"uint256"}],"name":"requests","outputs":[{"internalType":"string","name":"description","type":"string"},{"internalType":"uint256","name":"value","type":"uint256"},{"internalType":"address payable","name":"recipient","type":"address"},{"internalType":"bool","name":"completed","type":"bool"},{"internalType":"uint256","name":"approvalCount","type":"uint256"}],"stateMutability":"view","type":"function"},{"inputs":[{"internalType":"uint256","name":"value","type":"uint256"},{"internalType":"string","name":"description","type":"string"},{"internalType":"address payable","name":"recipient","type":"address"}],"name":"spendRequest","outputs":[],"stateMutability":"nonpayable","type":"function"}],"devdoc":{"kind":"dev","methods":{},"version":1},"evm":{"assembly":"    /* \"campaign.sol\":441:2487  contract Campaign {... */\n  mstore(0x40, 0x80)\n    /* \"campaign.sol\":856:997  constructor(uint minimum, address creator){... */\n  callvalue\n  dup1\n  iszero\n  tag_1\n  jumpi\n  0x00\n  dup1\n  revert\ntag_1:\n  pop\n  mload(0x40)\n  sub(codesize, bytecodeSize)\n  dup1\n  bytecodeSize\n  dup4\n  codecopy\n  dup2\n  dup2\n  add\n  0x40\n  mstore\n  dup2\n  add\n  swap1\n  tag_2\n  swap2\n  swap1\n  tag_3\n  jump\t// in\ntag_2:\n    /* \"campaign.sol\":917:924  creator */\n  dup1\n    /* \"campaign.sol\":909:914  owner */\n  0x01\n  0x00\n    /* \"campaign.sol\":909:924  owner = creator */\n  0x0100\n  exp\n  dup2\n  sload\n  dup2\n  0xffffffffffffffffffffffffffffffffffffffff\n  mul\n  not\n  and\n  swap1\n  dup4\n  0xffffffffffffffffffffffffffffffffffffffff\n  and\n  mul\n  or\n  swap1\n  sstore\n  pop\n    /* \"campaign.sol\":953:960  minimum */\n  dup2\n    /* \"campaign.sol\":935:950  minContribution */\n  0x02\n    /* \"campaign.sol\":935:960  minContribution = minimum */\n  dup2\n  swap1\n  sstore\n  pop\n    /* \"campaign.sol\":988:989  0 */\n  0x00\n    /* \"campaign.sol\":971:985  approversCount */\n  0x04\n    /* \"campaign.sol\":971:989  approversCount = 0 */\n  dup2\n  swap1\n  sstore\n  pop\n    /* \"campaign.sol\":856:997  constructor(uint minimum, address creator){... */\n  pop\n  pop\n    /* \"campaign.sol\":441:2487  contract Campaign {... */\n  jump(tag_6)\n    /* \"#utility.yul\":88:205   */\ntag_8:\n    /* \"#utility.yul\":197:198   */\n  0x00\n    /* \"#utility.yul\":194:195   */\n  dup1\n    /* \"#utility.yul\":187:199   */\n  revert\n    /* \"#utility.yul\":334:411   */\ntag_10:\n    /* \"#utility.yul\":371:378   */\n  0x00\n    /* \"#utility.yul\":400:405   */\n  dup2\n    /* \"#utility.yul\":389:405   */\n  swap1\n  pop\n    /* \"#utility.yul\":334:411   */\n  swap2\n  swap1\n  pop\n  jump\t// out\n    /* \"#utility.yul\":417:539   */\ntag_11:\n    /* \"#utility.yul\":490:514   */\n  tag_23\n    /* \"#utility.yul\":508:513   */\n  dup2\n    /* \"#utility.yul\":490:514   */\n  tag_10\n  jump\t// in\ntag_23:\n    /* \"#utility.yul\":483:488   */\n  dup2\n    /* \"#utility.yul\":480:515   */\n  eq\n    /* \"#utility.yul\":470:533   */\n  tag_24\n  jumpi\n    /* \"#utility.yul\":529:530   */\n  0x00\n    /* \"#utility.yul\":526:527   */\n  dup1\n    /* \"#utility.yul\":519:531   */\n  revert\n    /* \"#utility.yul\":470:533   */\ntag_24:\n    /* \"#utility.yul\":417:539   */\n  pop\n  jump\t// out\n    /* \"#utility.yul\":545:688   */\ntag_12:\n    /* \"#utility.yul\":602:607   */\n  0x00\n    /* \"#utility.yul\":633:639   */\n  dup2\n    /* \"#utility.yul\":627:640   */\n  mload\n    /* \"#utility.yul\":618:640   */\n  swap1\n  pop\n    /* \"#utility.yul\":649:682   */\n  tag_26\n    /* \"#utility.yul\":676:681   */\n  dup2\n    /* \"#utility.yul\":649:682   */\n  tag_11\n  jump\t// in\ntag_26:\n    /* \"#utility.yul\":545:688   */\n  swap3\n  swap2\n  pop\n  pop\n  jump\t// out\n    /* \"#utility.yul\":694:820   */\ntag_13:\n    /* \"#utility.yul\":731:738   */\n  0x00\n    /* \"#utility.yul\":771:813   */\n  0xffffffffffffffffffffffffffffffffffffffff\n    /* \"#utility.yul\":764:769   */\n  dup3\n    /* \"#utility.yul\":760:814   */\n  and\n    /* \"#utility.yul\":749:814   */\n  swap1\n  pop\n    /* \"#utility.yul\":694:820   */\n  swap2\n  swap1\n  pop\n  jump\t// out\n    /* \"#utility.yul\":826:922   */\ntag_14:\n    /* \"#utility.yul\":863:870   */\n  0x00\n    /* \"#utility.yul\":892:916   */\n  tag_29\n    /* \"#utility.yul\":910:915   */\n  dup3\n    /* \"#utility.yul\":892:916   */\n  tag_13\n  jump\t// in\ntag_29:\n    /* \"#utility.yul\":881:916   */\n  swap1\n  pop\n    /* \"#utility.yul\":826:922   */\n  swap2\n  swap1\n  pop\n  jump\t// out\n    /* \"#utility.yul\":928:1050   */\ntag_15:\n    /* \"#utility.yul\":1001:1025   */\n  tag_31\n    /* \"#utility.yul\":1019:1024   */\n  dup2\n    /* \"#utility.yul\":1001:1025   */\n  tag_14\n  jump\t// in\ntag_31:\n    /* \"#utility.yul\":994:999   */\n  dup2\n    /* \"#utility.yul\":991:1026   */\n  eq\n    /* \"#utility.yul\":981:1044   */\n  tag_32\n  jumpi\n    /* \"#utility.yul\":1040:1041   */\n  0x00\n    /* \"#utility.yul\":1037:1038   */\n  dup1\n    /* \"#utility.yul\":1030:1042   */\n  revert\n    /* \"#utility.yul\":981:1044   */\ntag_32:\n    /* \"#utility.yul\":928:1050   */\n  pop\n  jump\t// out\n    /* \"#utility.yul\":1056:1199   */\ntag_16:\n    /* \"#utility.yul\":1113:1118   */\n  0x00\n    /* \"#utility.yul\":1144:1150   */\n  dup2\n    /* \"#utility.yul\":1138:1151   */\n  mload\n    /* \"#utility.yul\":1129:1151   */\n  swap1\n  pop\n    /* \"#utility.yul\":1160:1193   */\n  tag_34\n    /* \"#utility.yul\":1187:1192   */\n  dup2\n    /* \"#utility.yul\":1160:1193   */\n  tag_15\n  jump\t// in\ntag_34:\n    /* \"#utility.yul\":1056:1199   */\n  swap3\n  swap2\n  pop\n  pop\n  jump\t// out\n    /* \"#utility.yul\":1205:1712   */\ntag_3:\n    /* \"#utility.yul\":1284:1290   */\n  0x00\n    /* \"#utility.yul\":1292:1298   */\n  dup1\n    /* \"#utility.yul\":1341:1343   */\n  0x40\n    /* \"#utility.yul\":1329:1338   */\n  dup4\n    /* \"#utility.yul\":1320:1327   */\n  dup6\n    /* \"#utility.yul\":1316:1339   */\n  sub\n    /* \"#utility.yul\":1312:1344   */\n  slt\n    /* \"#utility.yul\":1309:1428   */\n  iszero\n  tag_36\n  jumpi\n    /* \"#utility.yul\":1347:1426   */\n  tag_37\n  tag_8\n  jump\t// in\ntag_37:\n    /* \"#utility.yul\":1309:1428   */\ntag_36:\n    /* \"#utility.yul\":1467:1468   */\n  0x00\n    /* \"#utility.yul\":1492:1556   */\n  tag_38\n    /* \"#utility.yul\":1548:1555   */\n  dup6\n    /* \"#utility.yul\":1539:1545   */\n  dup3\n    /* \"#utility.yul\":1528:1537   */\n  dup7\n    /* \"#utility.yul\":1524:1546   */\n  add\n    /* \"#utility.yul\":1492:1556   */\n  tag_12\n  jump\t// in\ntag_38:\n    /* \"#utility.yul\":1482:1556   */\n  swap3\n  pop\n    /* \"#utility.yul\":1438:1566   */\n  pop\n    /* \"#utility.yul\":1605:1607   */\n  0x20\n    /* \"#utility.yul\":1631:1695   */\n  tag_39\n    /* \"#utility.yul\":1687:1694   */\n  dup6\n    /* \"#utility.yul\":1678:1684   */\n  dup3\n    /* \"#utility.yul\":1667:1676   */\n  dup7\n    /* \"#utility.yul\":1663:1685   */\n  add\n    /* \"#utility.yul\":1631:1695   */\n  tag_16\n  jump\t// in\ntag_39:\n    /* \"#utility.yul\":1621:1695   */\n  swap2\n  pop\n    /* \"#utility.yul\":1576:1705   */\n  pop\n    /* \"#utility.yul\":1205:1712   */\n  swap3\n  pop\n  swap3\n  swap1\n  pop\n  jump\t// out\n    /* \"campaign.sol\":441:2487  contract Campaign {... */\ntag_6:\n  dataSize(sub_0)\n  dup1\n  dataOffset(sub_0)\n  0x00\n  codecopy\n  0x00\n  return\nstop\n\nsub_0: assembly {\n        /* \"campaign.sol\":441:2487  contract Campaign {... */\n      mstore(0x40, 0x80)\n      jumpi(tag_1, lt(calldatasize, 0x04))\n      shr(0xe0, calldataload(0x00))\n      dup1\n      0x82fde093\n      gt\n      tag_11\n      jumpi\n      dup1\n      0x82fde093\n      eq\n      tag_6\n      jumpi\n      dup1\n      0x8da5cb5b\n      eq\n      tag_7\n      jumpi\n      dup1\n      0xaaffadf3\n      eq\n      tag_8\n      jumpi\n      dup1\n      0xd7bb99ba\n      eq\n      tag_9\n      jumpi\n      dup1\n      0xd7d1bbdb\n      eq\n      tag_10\n      jumpi\n      jump(tag_1)\n    tag_11:\n      dup1\n      0x03441006\n      eq\n      tag_2\n      jumpi\n      dup1\n      0x0a144391\n      eq\n      tag_3\n      jumpi\n      dup1\n      0x7d5cadd2\n      eq\n      tag_4\n      jumpi\n      dup1\n      0x81d12c58\n      eq\n      tag_5\n      jumpi\n    tag_1:\n      0x00\n      dup1\n      revert\n        /* \"campaign.sol\":2207:2484  function finalizeRequest(uint index) public payable ownerOnly{... */\n    tag_2:\n      tag_12\n      0x04\n      dup1\n      calldatasize\n      sub\n      dup2\n      add\n      swap1\n      tag_13\n      swap2\n      swap1\n      tag_14\n      jump\t// in\n    tag_13:\n      tag_15\n      jump\t// in\n    tag_12:\n      stop\n        /* \"campaign.sol\":773:814  mapping(address => bool) public approvers */\n    tag_3:\n      callvalue\n      dup1\n      iszero\n      tag_16\n      jumpi\n      0x00\n      dup1\n      revert\n    tag_16:\n      pop\n      tag_17\n      0x04\n      dup1\n      calldatasize\n      sub\n      dup2\n      add\n      swap1\n      tag_18\n      swap2\n      swap1\n      tag_19\n      jump\t// in\n    tag_18:\n      tag_20\n      jump\t// in\n    tag_17:\n      mload(0x40)\n      tag_21\n      swap2\n      swap1\n      tag_22\n      jump\t// in\n    tag_21:\n      mload(0x40)\n      dup1\n      swap2\n      sub\n      swap1\n      return\n        /* \"campaign.sol\":1257:1913  function spendRequest(uint value, string memory description, address payable recipient) public ownerOnly{... */\n    tag_4:\n      callvalue\n      dup1\n      iszero\n      tag_23\n      jumpi\n      0x00\n      dup1\n      revert\n    tag_23:\n      pop\n      tag_24\n      0x04\n      dup1\n      calldatasize\n      sub\n      dup2\n      add\n      swap1\n      tag_25\n      swap2\n      swap1\n      tag_26\n      jump\t// in\n    tag_25:\n      tag_27\n      jump\t// in\n    tag_24:\n      stop\n        /* \"campaign.sol\":680:705  Request[] public requests */\n    tag_5:\n      callvalue\n      dup1\n      iszero\n      tag_28\n      jumpi\n      0x00\n      dup1\n      revert\n    tag_28:\n      pop\n      tag_29\n      0x04\n      dup1\n      calldatasize\n      sub\n      dup2\n      add\n      swap1\n      tag_30\n      swap2\n      swap1\n      tag_14\n      jump\t// in\n    tag_30:\n      tag_31\n      jump\t// in\n    tag_29:\n      mload(0x40)\n      tag_32\n      swap6\n      swap5\n      swap4\n      swap3\n      swap2\n      swap1\n      tag_33\n      jump\t// in\n    tag_32:\n      mload(0x40)\n      dup1\n      swap2\n      sub\n      swap1\n      return\n        /* \"campaign.sol\":821:847  uint public approversCount */\n    tag_6:\n      callvalue\n      dup1\n      iszero\n      tag_34\n      jumpi\n      0x00\n      dup1\n      revert\n    tag_34:\n      pop\n      tag_35\n      tag_36\n      jump\t// in\n    tag_35:\n      mload(0x40)\n      tag_37\n      swap2\n      swap1\n      tag_38\n      jump\t// in\n    tag_37:\n      mload(0x40)\n      dup1\n      swap2\n      sub\n      swap1\n      return\n        /* \"campaign.sol\":712:732  address public owner */\n    tag_7:\n      callvalue\n      dup1\n      iszero\n      tag_39\n      jumpi\n      0x00\n      dup1\n      revert\n    tag_39:\n      pop\n      tag_40\n      tag_41\n      jump\t// in\n    tag_40:\n      mload(0x40)\n      tag_42\n      swap2\n      swap1\n      tag_43\n      jump\t// in\n    tag_42:\n      mload(0x40)\n      dup1\n      swap2\n      sub\n      swap1\n      return\n        /* \"campaign.sol\":739:766  uint public minContribution */\n    tag_8:\n      callvalue\n      dup1\n      iszero\n      tag_44\n      jumpi\n      0x00\n      dup1\n      revert\n    tag_44:\n      pop\n      tag_45\n      tag_46\n      jump\t// in\n    tag_45:\n      mload(0x40)\n      tag_47\n      swap2\n      swap1\n      tag_38\n      jump\t// in\n    tag_47:\n      mload(0x40)\n      dup1\n      swap2\n      sub\n      swap1\n      return\n        /* \"campaign.sol\":1005:1162  function contribute() payable public{... */\n    tag_9:\n      tag_48\n      tag_49\n      jump\t// in\n    tag_48:\n      stop\n        /* \"campaign.sol\":1921:2199  function approveRequest(uint index) public{... */\n    tag_10:\n      callvalue\n      dup1\n      iszero\n      tag_50\n      jumpi\n      0x00\n      dup1\n      revert\n    tag_50:\n      pop\n      tag_51\n      0x04\n      dup1\n      calldatasize\n      sub\n      dup2\n      add\n      swap1\n      tag_52\n      swap2\n      swap1\n      tag_14\n      jump\t// in\n    tag_52:\n      tag_53\n      jump\t// in\n    tag_51:\n      stop\n        /* \"campaign.sol\":2207:2484  function finalizeRequest(uint index) public payable ownerOnly{... */\n    tag_15:\n        /* \"campaign.sol\":1223:1228  owner */\n      0x01\n      0x00\n      swap1\n      sload\n      swap1\n      0x0100\n      exp\n      swap1\n      div\n      0xffffffffffffffffffffffffffffffffffffffff\n      and\n        /* \"campaign.sol\":1209:1228  msg.sender == owner */\n      0xffffffffffffffffffffffffffffffffffffffff\n      and\n        /* \"campaign.sol\":1209:1219  msg.sender */\n      caller\n        /* \"campaign.sol\":1209:1228  msg.sender == owner */\n      0xffffffffffffffffffffffffffffffffffffffff\n      and\n      eq\n        /* \"campaign.sol\":1201:1229  require(msg.sender == owner) */\n      tag_55\n      jumpi\n      0x00\n      dup1\n      revert\n    tag_55:\n        /* \"campaign.sol\":2279:2302  Request storage request */\n      0x00\n        /* \"campaign.sol\":2305:2313  requests */\n      dup1\n        /* \"campaign.sol\":2314:2319  index */\n      dup3\n        /* \"campaign.sol\":2305:2320  requests[index] */\n      dup2\n      sload\n      dup2\n      lt\n      tag_57\n      jumpi\n      tag_58\n      tag_59\n      jump\t// in\n    tag_58:\n    tag_57:\n      swap1\n      0x00\n      mstore\n      keccak256(0x00, 0x20)\n      swap1\n      0x05\n      mul\n      add\n        /* \"campaign.sol\":2279:2320  Request storage request = requests[index] */\n      swap1\n      pop\n        /* \"campaign.sol\":2342:2349  request */\n      dup1\n        /* \"campaign.sol\":2342:2359  request.completed */\n      0x02\n      add\n      0x14\n      swap1\n      sload\n      swap1\n      0x0100\n      exp\n      swap1\n      div\n      0xff\n      and\n        /* \"campaign.sol\":2341:2359  !request.completed */\n      iszero\n        /* \"campaign.sol\":2333:2360  require(!request.completed) */\n      tag_61\n      jumpi\n      0x00\n      dup1\n      revert\n    tag_61:\n        /* \"campaign.sol\":2419:2420  2 */\n      0x02\n        /* \"campaign.sol\":2404:2418  approversCount */\n      sload(0x04)\n        /* \"campaign.sol\":2404:2420  approversCount/2 */\n      tag_62\n      swap2\n      swap1\n      tag_63\n      jump\t// in\n    tag_62:\n        /* \"campaign.sol\":2379:2386  request */\n      dup2\n        /* \"campaign.sol\":2379:2400  request.approvalCount */\n      0x03\n      add\n      sload\n        /* \"campaign.sol\":2379:2421  request.approvalCount > (approversCount/2) */\n      gt\n        /* \"campaign.sol\":2371:2422  require(request.approvalCount > (approversCount/2)) */\n      tag_64\n      jumpi\n      0x00\n      dup1\n      revert\n    tag_64:\n        /* \"campaign.sol\":2435:2442  request */\n      dup1\n        /* \"campaign.sol\":2435:2452  request.recipient */\n      0x02\n      add\n      0x00\n      swap1\n      sload\n      swap1\n      0x0100\n      exp\n      swap1\n      div\n      0xffffffffffffffffffffffffffffffffffffffff\n      and\n        /* \"campaign.sol\":2435:2461  request.recipient.transfer */\n      0xffffffffffffffffffffffffffffffffffffffff\n      and\n        /* \"campaign.sol\":2435:2476  request.recipient.transfer(request.value) */\n      0x08fc\n        /* \"campaign.sol\":2462:2469  request */\n      dup3\n        /* \"campaign.sol\":2462:2475  request.value */\n      0x01\n      add\n      sload\n        /* \"campaign.sol\":2435:2476  request.recipient.transfer(request.value) */\n      swap1\n      dup2\n      iszero\n      mul\n      swap1\n      mload(0x40)\n      0x00\n      mload(0x40)\n      dup1\n      dup4\n      sub\n      dup2\n      dup6\n      dup9\n      dup9\n      call\n      swap4\n      pop\n      pop\n      pop\n      pop\n      iszero\n      dup1\n      iszero\n      tag_66\n      jumpi\n      returndatasize\n      0x00\n      dup1\n      returndatacopy\n      revert(0x00, returndatasize)\n    tag_66:\n      pop\n        /* \"campaign.sol\":2268:2484  {... */\n      pop\n        /* \"campaign.sol\":2207:2484  function finalizeRequest(uint index) public payable ownerOnly{... */\n      pop\n      jump\t// out\n        /* \"campaign.sol\":773:814  mapping(address => bool) public approvers */\n    tag_20:\n      mstore(0x20, 0x03)\n      dup1\n      0x00\n      mstore\n      keccak256(0x00, 0x40)\n      0x00\n      swap2\n      pop\n      sload\n      swap1\n      0x0100\n      exp\n      swap1\n      div\n      0xff\n      and\n      dup2\n      jump\t// out\n        /* \"campaign.sol\":1257:1913  function spendRequest(uint value, string memory description, address payable recipient) public ownerOnly{... */\n    tag_27:\n        /* \"campaign.sol\":1223:1228  owner */\n      0x01\n      0x00\n      swap1\n      sload\n      swap1\n      0x0100\n      exp\n      swap1\n      div\n      0xffffffffffffffffffffffffffffffffffffffff\n      and\n        /* \"campaign.sol\":1209:1228  msg.sender == owner */\n      0xffffffffffffffffffffffffffffffffffffffff\n      and\n        /* \"campaign.sol\":1209:1219  msg.sender */\n      caller\n        /* \"campaign.sol\":1209:1228  msg.sender == owner */\n      0xffffffffffffffffffffffffffffffffffffffff\n      and\n      eq\n        /* \"campaign.sol\":1201:1229  require(msg.sender == owner) */\n      tag_68\n      jumpi\n      0x00\n      dup1\n      revert\n    tag_68:\n        /* \"campaign.sol\":1658:1684  Request storage newRequest */\n      0x00\n        /* \"campaign.sol\":1687:1695  requests */\n      dup1\n        /* \"campaign.sol\":1687:1702  requests.push() */\n      0x01\n      dup2\n      0x01\n      dup2\n      sload\n      add\n      dup1\n      dup3\n      sstore\n      dup1\n      swap2\n      pop\n      pop\n      sub\n      swap1\n      0x00\n      mstore\n      keccak256(0x00, 0x20)\n      swap1\n      0x05\n      mul\n      add\n        /* \"campaign.sol\":1658:1702  Request storage newRequest = requests.push() */\n      swap1\n      pop\n        /* \"campaign.sol\":1738:1749  description */\n      dup3\n        /* \"campaign.sol\":1713:1723  newRequest */\n      dup2\n        /* \"campaign.sol\":1713:1735  newRequest.description */\n      0x00\n      add\n        /* \"campaign.sol\":1713:1749  newRequest.description = description */\n      swap1\n      dup1\n      mload\n      swap1\n      0x20\n      add\n      swap1\n      tag_71\n      swap3\n      swap2\n      swap1\n      tag_72\n      jump\t// in\n    tag_71:\n      pop\n        /* \"campaign.sol\":1779:1784  value */\n      dup4\n        /* \"campaign.sol\":1760:1770  newRequest */\n      dup2\n        /* \"campaign.sol\":1760:1776  newRequest.value */\n      0x01\n      add\n        /* \"campaign.sol\":1760:1784  newRequest.value = value */\n      dup2\n      swap1\n      sstore\n      pop\n        /* \"campaign.sol\":1818:1827  recipient */\n      dup2\n        /* \"campaign.sol\":1795:1805  newRequest */\n      dup2\n        /* \"campaign.sol\":1795:1815  newRequest.recipient */\n      0x02\n      add\n      0x00\n        /* \"campaign.sol\":1795:1827  newRequest.recipient = recipient */\n      0x0100\n      exp\n      dup2\n      sload\n      dup2\n      0xffffffffffffffffffffffffffffffffffffffff\n      mul\n      not\n      and\n      swap1\n      dup4\n      0xffffffffffffffffffffffffffffffffffffffff\n      and\n      mul\n      or\n      swap1\n      sstore\n      pop\n        /* \"campaign.sol\":1861:1866  false */\n      0x00\n        /* \"campaign.sol\":1838:1848  newRequest */\n      dup2\n        /* \"campaign.sol\":1838:1858  newRequest.completed */\n      0x02\n      add\n      0x14\n        /* \"campaign.sol\":1838:1866  newRequest.completed = false */\n      0x0100\n      exp\n      dup2\n      sload\n      dup2\n      0xff\n      mul\n      not\n      and\n      swap1\n      dup4\n      iszero\n      iszero\n      mul\n      or\n      swap1\n      sstore\n      pop\n        /* \"campaign.sol\":1904:1905  0 */\n      0x00\n        /* \"campaign.sol\":1877:1887  newRequest */\n      dup2\n        /* \"campaign.sol\":1877:1901  newRequest.approvalCount */\n      0x03\n      add\n        /* \"campaign.sol\":1877:1905  newRequest.approvalCount = 0 */\n      dup2\n      swap1\n      sstore\n      pop\n        /* \"campaign.sol\":1361:1913  {... */\n      pop\n        /* \"campaign.sol\":1257:1913  function spendRequest(uint value, string memory description, address payable recipient) public ownerOnly{... */\n      pop\n      pop\n      pop\n      jump\t// out\n        /* \"campaign.sol\":680:705  Request[] public requests */\n    tag_31:\n      0x00\n      dup2\n      dup2\n      sload\n      dup2\n      lt\n      tag_73\n      jumpi\n      0x00\n      dup1\n      revert\n    tag_73:\n      swap1\n      0x00\n      mstore\n      keccak256(0x00, 0x20)\n      swap1\n      0x05\n      mul\n      add\n      0x00\n      swap2\n      pop\n      swap1\n      pop\n      dup1\n      0x00\n      add\n      dup1\n      sload\n      tag_75\n      swap1\n      tag_76\n      jump\t// in\n    tag_75:\n      dup1\n      0x1f\n      add\n      0x20\n      dup1\n      swap2\n      div\n      mul\n      0x20\n      add\n      mload(0x40)\n      swap1\n      dup2\n      add\n      0x40\n      mstore\n      dup1\n      swap3\n      swap2\n      swap1\n      dup2\n      dup2\n      mstore\n      0x20\n      add\n      dup3\n      dup1\n      sload\n      tag_77\n      swap1\n      tag_76\n      jump\t// in\n    tag_77:\n      dup1\n      iszero\n      tag_78\n      jumpi\n      dup1\n      0x1f\n      lt\n      tag_79\n      jumpi\n      0x0100\n      dup1\n      dup4\n      sload\n      div\n      mul\n      dup4\n      mstore\n      swap2\n      0x20\n      add\n      swap2\n      jump(tag_78)\n    tag_79:\n      dup3\n      add\n      swap2\n      swap1\n      0x00\n      mstore\n      keccak256(0x00, 0x20)\n      swap1\n    tag_80:\n      dup2\n      sload\n      dup2\n      mstore\n      swap1\n      0x01\n      add\n      swap1\n      0x20\n      add\n      dup1\n      dup4\n      gt\n      tag_80\n      jumpi\n      dup3\n      swap1\n      sub\n      0x1f\n      and\n      dup3\n      add\n      swap2\n    tag_78:\n      pop\n      pop\n      pop\n      pop\n      pop\n      swap1\n      dup1\n      0x01\n      add\n      sload\n      swap1\n      dup1\n      0x02\n      add\n      0x00\n      swap1\n      sload\n      swap1\n      0x0100\n      exp\n      swap1\n      div\n      0xffffffffffffffffffffffffffffffffffffffff\n      and\n      swap1\n      dup1\n      0x02\n      add\n      0x14\n      swap1\n      sload\n      swap1\n      0x0100\n      exp\n      swap1\n      div\n      0xff\n      and\n      swap1\n      dup1\n      0x03\n      add\n      sload\n      swap1\n      pop\n      dup6\n      jump\t// out\n        /* \"campaign.sol\":821:847  uint public approversCount */\n    tag_36:\n      sload(0x04)\n      dup2\n      jump\t// out\n        /* \"campaign.sol\":712:732  address public owner */\n    tag_41:\n      0x01\n      0x00\n      swap1\n      sload\n      swap1\n      0x0100\n      exp\n      swap1\n      div\n      0xffffffffffffffffffffffffffffffffffffffff\n      and\n      dup2\n      jump\t// out\n        /* \"campaign.sol\":739:766  uint public minContribution */\n    tag_46:\n      sload(0x02)\n      dup2\n      jump\t// out\n        /* \"campaign.sol\":1005:1162  function contribute() payable public{... */\n    tag_49:\n        /* \"campaign.sol\":1072:1087  minContribution */\n      sload(0x02)\n        /* \"campaign.sol\":1060:1069  msg.value */\n      callvalue\n        /* \"campaign.sol\":1060:1087  msg.value > minContribution */\n      gt\n        /* \"campaign.sol\":1052:1088  require(msg.value > minContribution) */\n      tag_82\n      jumpi\n      0x00\n      dup1\n      revert\n    tag_82:\n        /* \"campaign.sol\":1123:1127  true */\n      0x01\n        /* \"campaign.sol\":1099:1108  approvers */\n      0x03\n        /* \"campaign.sol\":1099:1120  approvers[msg.sender] */\n      0x00\n        /* \"campaign.sol\":1109:1119  msg.sender */\n      caller\n        /* \"campaign.sol\":1099:1120  approvers[msg.sender] */\n      0xffffffffffffffffffffffffffffffffffffffff\n      and\n      0xffffffffffffffffffffffffffffffffffffffff\n      and\n      dup2\n      mstore\n      0x20\n      add\n      swap1\n      dup2\n      mstore\n      0x20\n      add\n      0x00\n      keccak256\n      0x00\n        /* \"campaign.sol\":1099:1127  approvers[msg.sender] = true */\n      0x0100\n      exp\n      dup2\n      sload\n      dup2\n      0xff\n      mul\n      not\n      and\n      swap1\n      dup4\n      iszero\n      iszero\n      mul\n      or\n      swap1\n      sstore\n      pop\n        /* \"campaign.sol\":1138:1152  approversCount */\n      0x04\n      0x00\n        /* \"campaign.sol\":1138:1154  approversCount++ */\n      dup2\n      sload\n      dup1\n      swap3\n      swap2\n      swap1\n      tag_83\n      swap1\n      tag_84\n      jump\t// in\n    tag_83:\n      swap2\n      swap1\n      pop\n      sstore\n      pop\n        /* \"campaign.sol\":1005:1162  function contribute() payable public{... */\n      jump\t// out\n        /* \"campaign.sol\":1921:2199  function approveRequest(uint index) public{... */\n    tag_53:\n        /* \"campaign.sol\":1974:1997  Request storage request */\n      0x00\n        /* \"campaign.sol\":2000:2008  requests */\n      dup1\n        /* \"campaign.sol\":2009:2014  index */\n      dup3\n        /* \"campaign.sol\":2000:2015  requests[index] */\n      dup2\n      sload\n      dup2\n      lt\n      tag_86\n      jumpi\n      tag_87\n      tag_59\n      jump\t// in\n    tag_87:\n    tag_86:\n      swap1\n      0x00\n      mstore\n      keccak256(0x00, 0x20)\n      swap1\n      0x05\n      mul\n      add\n        /* \"campaign.sol\":1974:2015  Request storage request = requests[index] */\n      swap1\n      pop\n        /* \"campaign.sol\":2036:2045  approvers */\n      0x03\n        /* \"campaign.sol\":2036:2057  approvers[msg.sender] */\n      0x00\n        /* \"campaign.sol\":2046:2056  msg.sender */\n      caller\n        /* \"campaign.sol\":2036:2057  approvers[msg.sender] */\n      0xffffffffffffffffffffffffffffffffffffffff\n      and\n      0xffffffffffffffffffffffffffffffffffffffff\n      and\n      dup2\n      mstore\n      0x20\n      add\n      swap1\n      dup2\n      mstore\n      0x20\n      add\n      0x00\n      keccak256\n      0x00\n      swap1\n      sload\n      swap1\n      0x0100\n      exp\n      swap1\n      div\n      0xff\n      and\n        /* \"campaign.sol\":2028:2058  require(approvers[msg.sender]) */\n      tag_89\n      jumpi\n      0x00\n      dup1\n      revert\n    tag_89:\n        /* \"campaign.sol\":2078:2085  request */\n      dup1\n        /* \"campaign.sol\":2078:2094  request.approval */\n      0x04\n      add\n        /* \"campaign.sol\":2078:2106  request.approval[msg.sender] */\n      0x00\n        /* \"campaign.sol\":2095:2105  msg.sender */\n      caller\n        /* \"campaign.sol\":2078:2106  request.approval[msg.sender] */\n      0xffffffffffffffffffffffffffffffffffffffff\n      and\n      0xffffffffffffffffffffffffffffffffffffffff\n      and\n      dup2\n      mstore\n      0x20\n      add\n      swap1\n      dup2\n      mstore\n      0x20\n      add\n      0x00\n      keccak256\n      0x00\n      swap1\n      sload\n      swap1\n      0x0100\n      exp\n      swap1\n      div\n      0xff\n      and\n        /* \"campaign.sol\":2077:2106  !request.approval[msg.sender] */\n      iszero\n        /* \"campaign.sol\":2069:2107  require(!request.approval[msg.sender]) */\n      tag_90\n      jumpi\n      0x00\n      dup1\n      revert\n    tag_90:\n        /* \"campaign.sol\":2151:2155  true */\n      0x01\n        /* \"campaign.sol\":2120:2127  request */\n      dup2\n        /* \"campaign.sol\":2120:2136  request.approval */\n      0x04\n      add\n        /* \"campaign.sol\":2120:2148  request.approval[msg.sender] */\n      0x00\n        /* \"campaign.sol\":2137:2147  msg.sender */\n      caller\n        /* \"campaign.sol\":2120:2148  request.approval[msg.sender] */\n      0xffffffffffffffffffffffffffffffffffffffff\n      and\n      0xffffffffffffffffffffffffffffffffffffffff\n      and\n      dup2\n      mstore\n      0x20\n      add\n      swap1\n      dup2\n      mstore\n      0x20\n      add\n      0x00\n      keccak256\n      0x00\n        /* \"campaign.sol\":2120:2155  request.approval[msg.sender] = true */\n      0x0100\n      exp\n      dup2\n      sload\n      dup2\n      0xff\n      mul\n      not\n      and\n      swap1\n      dup4\n      iszero\n      iszero\n      mul\n      or\n      swap1\n      sstore\n      pop\n        /* \"campaign.sol\":2166:2173  request */\n      dup1\n        /* \"campaign.sol\":2166:2187  request.approvalCount */\n      0x03\n      add\n      0x00\n        /* \"campaign.sol\":2166:2189  request.approvalCount++ */\n      dup2\n      sload\n      dup1\n      swap3\n      swap2\n      swap1\n      tag_91\n      swap1\n      tag_84\n      jump\t// in\n    tag_91:\n      swap2\n      swap1\n      pop\n      sstore\n      pop\n        /* \"campaign.sol\":1963:2199  {... */\n      pop\n        /* \"campaign.sol\":1921:2199  function approveRequest(uint index) public{... */\n      pop\n      jump\t// out\n    tag_72:\n      dup3\n      dup1\n      sload\n      tag_92\n      swap1\n      tag_76\n      jump\t// in\n    tag_92:\n      swap1\n      0x00\n      mstore\n      keccak256(0x00, 0x20)\n      swap1\n      0x1f\n      add\n      0x20\n      swap1\n      div\n      dup2\n      add\n      swap3\n      dup3\n      tag_94\n      jumpi\n      0x00\n      dup6\n      sstore\n      jump(tag_93)\n    tag_94:\n      dup3\n      0x1f\n      lt\n      tag_95\n      jumpi\n      dup1\n      mload\n      not(0xff)\n      and\n      dup4\n      dup1\n      add\n      or\n      dup6\n      sstore\n      jump(tag_93)\n    tag_95:\n      dup3\n      dup1\n      add\n      0x01\n      add\n      dup6\n      sstore\n      dup3\n      iszero\n      tag_93\n      jumpi\n      swap2\n      dup3\n      add\n    tag_96:\n      dup3\n      dup2\n      gt\n      iszero\n      tag_97\n      jumpi\n      dup3\n      mload\n      dup3\n      sstore\n      swap2\n      0x20\n      add\n      swap2\n      swap1\n      0x01\n      add\n      swap1\n      jump(tag_96)\n    tag_97:\n    tag_93:\n      pop\n      swap1\n      pop\n      tag_98\n      swap2\n      swap1\n      tag_99\n      jump\t// in\n    tag_98:\n      pop\n      swap1\n      jump\t// out\n    tag_99:\n    tag_100:\n      dup1\n      dup3\n      gt\n      iszero\n      tag_101\n      jumpi\n      0x00\n      dup2\n      0x00\n      swap1\n      sstore\n      pop\n      0x01\n      add\n      jump(tag_100)\n    tag_101:\n      pop\n      swap1\n      jump\t// out\n        /* \"#utility.yul\":7:82   */\n    tag_102:\n        /* \"#utility.yul\":40:46   */\n      0x00\n        /* \"#utility.yul\":73:75   */\n      0x40\n        /* \"#utility.yul\":67:76   */\n      mload\n        /* \"#utility.yul\":57:76   */\n      swap1\n      pop\n        /* \"#utility.yul\":7:82   */\n      swap1\n      jump\t// out\n        /* \"#utility.yul\":88:205   */\n    tag_103:\n        /* \"#utility.yul\":197:198   */\n      0x00\n        /* \"#utility.yul\":194:195   */\n      dup1\n        /* \"#utility.yul\":187:199   */\n      revert\n        /* \"#utility.yul\":211:328   */\n    tag_104:\n        /* \"#utility.yul\":320:321   */\n      0x00\n        /* \"#utility.yul\":317:318   */\n      dup1\n        /* \"#utility.yul\":310:322   */\n      revert\n        /* \"#utility.yul\":334:411   */\n    tag_105:\n        /* \"#utility.yul\":371:378   */\n      0x00\n        /* \"#utility.yul\":400:405   */\n      dup2\n        /* \"#utility.yul\":389:405   */\n      swap1\n      pop\n        /* \"#utility.yul\":334:411   */\n      swap2\n      swap1\n      pop\n      jump\t// out\n        /* \"#utility.yul\":417:539   */\n    tag_106:\n        /* \"#utility.yul\":490:514   */\n      tag_143\n        /* \"#utility.yul\":508:513   */\n      dup2\n        /* \"#utility.yul\":490:514   */\n      tag_105\n      jump\t// in\n    tag_143:\n        /* \"#utility.yul\":483:488   */\n      dup2\n        /* \"#utility.yul\":480:515   */\n      eq\n        /* \"#utility.yul\":470:533   */\n      tag_144\n      jumpi\n        /* \"#utility.yul\":529:530   */\n      0x00\n        /* \"#utility.yul\":526:527   */\n      dup1\n        /* \"#utility.yul\":519:531   */\n      revert\n        /* \"#utility.yul\":470:533   */\n    tag_144:\n        /* \"#utility.yul\":417:539   */\n      pop\n      jump\t// out\n        /* \"#utility.yul\":545:684   */\n    tag_107:\n        /* \"#utility.yul\":591:596   */\n      0x00\n        /* \"#utility.yul\":629:635   */\n      dup2\n        /* \"#utility.yul\":616:636   */\n      calldataload\n        /* \"#utility.yul\":607:636   */\n      swap1\n      pop\n        /* \"#utility.yul\":645:678   */\n      tag_146\n        /* \"#utility.yul\":672:677   */\n      dup2\n        /* \"#utility.yul\":645:678   */\n      tag_106\n      jump\t// in\n    tag_146:\n        /* \"#utility.yul\":545:684   */\n      swap3\n      swap2\n      pop\n      pop\n      jump\t// out\n        /* \"#utility.yul\":690:1019   */\n    tag_14:\n        /* \"#utility.yul\":749:755   */\n      0x00\n        /* \"#utility.yul\":798:800   */\n      0x20\n        /* \"#utility.yul\":786:795   */\n      dup3\n        /* \"#utility.yul\":777:784   */\n      dup5\n        /* \"#utility.yul\":773:796   */\n      sub\n        /* \"#utility.yul\":769:801   */\n      slt\n        /* \"#utility.yul\":766:885   */\n      iszero\n      tag_148\n      jumpi\n        /* \"#utility.yul\":804:883   */\n      tag_149\n      tag_103\n      jump\t// in\n    tag_149:\n        /* \"#utility.yul\":766:885   */\n    tag_148:\n        /* \"#utility.yul\":924:925   */\n      0x00\n        /* \"#utility.yul\":949:1002   */\n      tag_150\n        /* \"#utility.yul\":994:1001   */\n      dup5\n        /* \"#utility.yul\":985:991   */\n      dup3\n        /* \"#utility.yul\":974:983   */\n      dup6\n        /* \"#utility.yul\":970:992   */\n      add\n        /* \"#utility.yul\":949:1002   */\n      tag_107\n      jump\t// in\n    tag_150:\n        /* \"#utility.yul\":939:1002   */\n      swap2\n      pop\n        /* \"#utility.yul\":895:1012   */\n      pop\n        /* \"#utility.yul\":690:1019   */\n      swap3\n      swap2\n      pop\n      pop\n      jump\t// out\n        /* \"#utility.yul\":1025:1151   */\n    tag_108:\n        /* \"#utility.yul\":1062:1069   */\n      0x00\n        /* \"#utility.yul\":1102:1144   */\n      0xffffffffffffffffffffffffffffffffffffffff\n        /* \"#utility.yul\":1095:1100   */\n      dup3\n        /* \"#utility.yul\":1091:1145   */\n      and\n        /* \"#utility.yul\":1080:1145   */\n      swap1\n      pop\n        /* \"#utility.yul\":1025:1151   */\n      swap2\n      swap1\n      pop\n      jump\t// out\n        /* \"#utility.yul\":1157:1253   */\n    tag_109:\n        /* \"#utility.yul\":1194:1201   */\n      0x00\n        /* \"#utility.yul\":1223:1247   */\n      tag_153\n        /* \"#utility.yul\":1241:1246   */\n      dup3\n        /* \"#utility.yul\":1223:1247   */\n      tag_108\n      jump\t// in\n    tag_153:\n        /* \"#utility.yul\":1212:1247   */\n      swap1\n      pop\n        /* \"#utility.yul\":1157:1253   */\n      swap2\n      swap1\n      pop\n      jump\t// out\n        /* \"#utility.yul\":1259:1381   */\n    tag_110:\n        /* \"#utility.yul\":1332:1356   */\n      tag_155\n        /* \"#utility.yul\":1350:1355   */\n      dup2\n        /* \"#utility.yul\":1332:1356   */\n      tag_109\n      jump\t// in\n    tag_155:\n        /* \"#utility.yul\":1325:1330   */\n      dup2\n        /* \"#utility.yul\":1322:1357   */\n      eq\n        /* \"#utility.yul\":1312:1375   */\n      tag_156\n      jumpi\n        /* \"#utility.yul\":1371:1372   */\n      0x00\n        /* \"#utility.yul\":1368:1369   */\n      dup1\n        /* \"#utility.yul\":1361:1373   */\n      revert\n        /* \"#utility.yul\":1312:1375   */\n    tag_156:\n        /* \"#utility.yul\":1259:1381   */\n      pop\n      jump\t// out\n        /* \"#utility.yul\":1387:1526   */\n    tag_111:\n        /* \"#utility.yul\":1433:1438   */\n      0x00\n        /* \"#utility.yul\":1471:1477   */\n      dup2\n        /* \"#utility.yul\":1458:1478   */\n      calldataload\n        /* \"#utility.yul\":1449:1478   */\n      swap1\n      pop\n        /* \"#utility.yul\":1487:1520   */\n      tag_158\n        /* \"#utility.yul\":1514:1519   */\n      dup2\n        /* \"#utility.yul\":1487:1520   */\n      tag_110\n      jump\t// in\n    tag_158:\n        /* \"#utility.yul\":1387:1526   */\n      swap3\n      swap2\n      pop\n      pop\n      jump\t// out\n        /* \"#utility.yul\":1532:1861   */\n    tag_19:\n        /* \"#utility.yul\":1591:1597   */\n      0x00\n        /* \"#utility.yul\":1640:1642   */\n      0x20\n        /* \"#utility.yul\":1628:1637   */\n      dup3\n        /* \"#utility.yul\":1619:1626   */\n      dup5\n        /* \"#utility.yul\":1615:1638   */\n      sub\n        /* \"#utility.yul\":1611:1643   */\n      slt\n        /* \"#utility.yul\":1608:1727   */\n      iszero\n      tag_160\n      jumpi\n        /* \"#utility.yul\":1646:1725   */\n      tag_161\n      tag_103\n      jump\t// in\n    tag_161:\n        /* \"#utility.yul\":1608:1727   */\n    tag_160:\n        /* \"#utility.yul\":1766:1767   */\n      0x00\n        /* \"#utility.yul\":1791:1844   */\n      tag_162\n        /* \"#utility.yul\":1836:1843   */\n      dup5\n        /* \"#utility.yul\":1827:1833   */\n      dup3\n        /* \"#utility.yul\":1816:1825   */\n      dup6\n        /* \"#utility.yul\":1812:1834   */\n      add\n        /* \"#utility.yul\":1791:1844   */\n      tag_111\n      jump\t// in\n    tag_162:\n        /* \"#utility.yul\":1781:1844   */\n      swap2\n      pop\n        /* \"#utility.yul\":1737:1854   */\n      pop\n        /* \"#utility.yul\":1532:1861   */\n      swap3\n      swap2\n      pop\n      pop\n      jump\t// out\n        /* \"#utility.yul\":1867:1957   */\n    tag_112:\n        /* \"#utility.yul\":1901:1908   */\n      0x00\n        /* \"#utility.yul\":1944:1949   */\n      dup2\n        /* \"#utility.yul\":1937:1950   */\n      iszero\n        /* \"#utility.yul\":1930:1951   */\n      iszero\n        /* \"#utility.yul\":1919:1951   */\n      swap1\n      pop\n        /* \"#utility.yul\":1867:1957   */\n      swap2\n      swap1\n      pop\n      jump\t// out\n        /* \"#utility.yul\":1963:2072   */\n    tag_113:\n        /* \"#utility.yul\":2044:2065   */\n      tag_165\n        /* \"#utility.yul\":2059:2064   */\n      dup2\n        /* \"#utility.yul\":2044:2065   */\n      tag_112\n      jump\t// in\n    tag_165:\n        /* \"#utility.yul\":2039:2042   */\n      dup3\n        /* \"#utility.yul\":2032:2066   */\n      mstore\n        /* \"#utility.yul\":1963:2072   */\n      pop\n      pop\n      jump\t// out\n        /* \"#utility.yul\":2078:2288   */\n    tag_22:\n        /* \"#utility.yul\":2165:2169   */\n      0x00\n        /* \"#utility.yul\":2203:2205   */\n      0x20\n        /* \"#utility.yul\":2192:2201   */\n      dup3\n        /* \"#utility.yul\":2188:2206   */\n      add\n        /* \"#utility.yul\":2180:2206   */\n      swap1\n      pop\n        /* \"#utility.yul\":2216:2281   */\n      tag_167\n        /* \"#utility.yul\":2278:2279   */\n      0x00\n        /* \"#utility.yul\":2267:2276   */\n      dup4\n        /* \"#utility.yul\":2263:2280   */\n      add\n        /* \"#utility.yul\":2254:2260   */\n      dup5\n        /* \"#utility.yul\":2216:2281   */\n      tag_113\n      jump\t// in\n    tag_167:\n        /* \"#utility.yul\":2078:2288   */\n      swap3\n      swap2\n      pop\n      pop\n      jump\t// out\n        /* \"#utility.yul\":2294:2411   */\n    tag_114:\n        /* \"#utility.yul\":2403:2404   */\n      0x00\n        /* \"#utility.yul\":2400:2401   */\n      dup1\n        /* \"#utility.yul\":2393:2405   */\n      revert\n        /* \"#utility.yul\":2417:2534   */\n    tag_115:\n        /* \"#utility.yul\":2526:2527   */\n      0x00\n        /* \"#utility.yul\":2523:2524   */\n      dup1\n        /* \"#utility.yul\":2516:2528   */\n      revert\n        /* \"#utility.yul\":2540:2642   */\n    tag_116:\n        /* \"#utility.yul\":2581:2587   */\n      0x00\n        /* \"#utility.yul\":2632:2634   */\n      0x1f\n        /* \"#utility.yul\":2628:2635   */\n      not\n        /* \"#utility.yul\":2623:2625   */\n      0x1f\n        /* \"#utility.yul\":2616:2621   */\n      dup4\n        /* \"#utility.yul\":2612:2626   */\n      add\n        /* \"#utility.yul\":2608:2636   */\n      and\n        /* \"#utility.yul\":2598:2636   */\n      swap1\n      pop\n        /* \"#utility.yul\":2540:2642   */\n      swap2\n      swap1\n      pop\n      jump\t// out\n        /* \"#utility.yul\":2648:2828   */\n    tag_117:\n        /* \"#utility.yul\":2696:2773   */\n      0x4e487b7100000000000000000000000000000000000000000000000000000000\n        /* \"#utility.yul\":2693:2694   */\n      0x00\n        /* \"#utility.yul\":2686:2774   */\n      mstore\n        /* \"#utility.yul\":2793:2797   */\n      0x41\n        /* \"#utility.yul\":2790:2791   */\n      0x04\n        /* \"#utility.yul\":2783:2798   */\n      mstore\n        /* \"#utility.yul\":2817:2821   */\n      0x24\n        /* \"#utility.yul\":2814:2815   */\n      0x00\n        /* \"#utility.yul\":2807:2822   */\n      revert\n        /* \"#utility.yul\":2834:3115   */\n    tag_118:\n        /* \"#utility.yul\":2917:2944   */\n      tag_173\n        /* \"#utility.yul\":2939:2943   */\n      dup3\n        /* \"#utility.yul\":2917:2944   */\n      tag_116\n      jump\t// in\n    tag_173:\n        /* \"#utility.yul\":2909:2915   */\n      dup2\n        /* \"#utility.yul\":2905:2945   */\n      add\n        /* \"#utility.yul\":3047:3053   */\n      dup2\n        /* \"#utility.yul\":3035:3045   */\n      dup2\n        /* \"#utility.yul\":3032:3054   */\n      lt\n        /* \"#utility.yul\":3011:3029   */\n      0xffffffffffffffff\n        /* \"#utility.yul\":2999:3009   */\n      dup3\n        /* \"#utility.yul\":2996:3030   */\n      gt\n        /* \"#utility.yul\":2993:3055   */\n      or\n        /* \"#utility.yul\":2990:3078   */\n      iszero\n      tag_174\n      jumpi\n        /* \"#utility.yul\":3058:3076   */\n      tag_175\n      tag_117\n      jump\t// in\n    tag_175:\n        /* \"#utility.yul\":2990:3078   */\n    tag_174:\n        /* \"#utility.yul\":3098:3108   */\n      dup1\n        /* \"#utility.yul\":3094:3096   */\n      0x40\n        /* \"#utility.yul\":3087:3109   */\n      mstore\n        /* \"#utility.yul\":2877:3115   */\n      pop\n        /* \"#utility.yul\":2834:3115   */\n      pop\n      pop\n      jump\t// out\n        /* \"#utility.yul\":3121:3250   */\n    tag_119:\n        /* \"#utility.yul\":3155:3161   */\n      0x00\n        /* \"#utility.yul\":3182:3202   */\n      tag_177\n      tag_102\n      jump\t// in\n    tag_177:\n        /* \"#utility.yul\":3172:3202   */\n      swap1\n      pop\n        /* \"#utility.yul\":3211:3244   */\n      tag_178\n        /* \"#utility.yul\":3239:3243   */\n      dup3\n        /* \"#utility.yul\":3231:3237   */\n      dup3\n        /* \"#utility.yul\":3211:3244   */\n      tag_118\n      jump\t// in\n    tag_178:\n        /* \"#utility.yul\":3121:3250   */\n      swap2\n      swap1\n      pop\n      jump\t// out\n        /* \"#utility.yul\":3256:3564   */\n    tag_120:\n        /* \"#utility.yul\":3318:3322   */\n      0x00\n        /* \"#utility.yul\":3408:3426   */\n      0xffffffffffffffff\n        /* \"#utility.yul\":3400:3406   */\n      dup3\n        /* \"#utility.yul\":3397:3427   */\n      gt\n        /* \"#utility.yul\":3394:3450   */\n      iszero\n      tag_180\n      jumpi\n        /* \"#utility.yul\":3430:3448   */\n      tag_181\n      tag_117\n      jump\t// in\n    tag_181:\n        /* \"#utility.yul\":3394:3450   */\n    tag_180:\n        /* \"#utility.yul\":3468:3497   */\n      tag_182\n        /* \"#utility.yul\":3490:3496   */\n      dup3\n        /* \"#utility.yul\":3468:3497   */\n      tag_116\n      jump\t// in\n    tag_182:\n        /* \"#utility.yul\":3460:3497   */\n      swap1\n      pop\n        /* \"#utility.yul\":3552:3556   */\n      0x20\n        /* \"#utility.yul\":3546:3550   */\n      dup2\n        /* \"#utility.yul\":3542:3557   */\n      add\n        /* \"#utility.yul\":3534:3557   */\n      swap1\n      pop\n        /* \"#utility.yul\":3256:3564   */\n      swap2\n      swap1\n      pop\n      jump\t// out\n        /* \"#utility.yul\":3570:3724   */\n    tag_121:\n        /* \"#utility.yul\":3654:3660   */\n      dup3\n        /* \"#utility.yul\":3649:3652   */\n      dup2\n        /* \"#utility.yul\":3644:3647   */\n      dup4\n        /* \"#utility.yul\":3631:3661   */\n      calldatacopy\n        /* \"#utility.yul\":3716:3717   */\n      0x00\n        /* \"#utility.yul\":3707:3713   */\n      dup4\n        /* \"#utility.yul\":3702:3705   */\n      dup4\n        /* \"#utility.yul\":3698:3714   */\n      add\n        /* \"#utility.yul\":3691:3718   */\n      mstore\n        /* \"#utility.yul\":3570:3724   */\n      pop\n      pop\n      pop\n      jump\t// out\n        /* \"#utility.yul\":3730:4142   */\n    tag_122:\n        /* \"#utility.yul\":3808:3813   */\n      0x00\n        /* \"#utility.yul\":3833:3899   */\n      tag_185\n        /* \"#utility.yul\":3849:3898   */\n      tag_186\n        /* \"#utility.yul\":3891:3897   */\n      dup5\n        /* \"#utility.yul\":3849:3898   */\n      tag_120\n      jump\t// in\n    tag_186:\n        /* \"#utility.yul\":3833:3899   */\n      tag_119\n      jump\t// in\n    tag_185:\n        /* \"#utility.yul\":3824:3899   */\n      swap1\n      pop\n        /* \"#utility.yul\":3922:3928   */\n      dup3\n        /* \"#utility.yul\":3915:3920   */\n      dup2\n        /* \"#utility.yul\":3908:3929   */\n      mstore\n        /* \"#utility.yul\":3960:3964   */\n      0x20\n        /* \"#utility.yul\":3953:3958   */\n      dup2\n        /* \"#utility.yul\":3949:3965   */\n      add\n        /* \"#utility.yul\":3998:4001   */\n      dup5\n        /* \"#utility.yul\":3989:3995   */\n      dup5\n        /* \"#utility.yul\":3984:3987   */\n      dup5\n        /* \"#utility.yul\":3980:3996   */\n      add\n        /* \"#utility.yul\":3977:4002   */\n      gt\n        /* \"#utility.yul\":3974:4086   */\n      iszero\n      tag_187\n      jumpi\n        /* \"#utility.yul\":4005:4084   */\n      tag_188\n      tag_115\n      jump\t// in\n    tag_188:\n        /* \"#utility.yul\":3974:4086   */\n    tag_187:\n        /* \"#utility.yul\":4095:4136   */\n      tag_189\n        /* \"#utility.yul\":4129:4135   */\n      dup5\n        /* \"#utility.yul\":4124:4127   */\n      dup3\n        /* \"#utility.yul\":4119:4122   */\n      dup6\n        /* \"#utility.yul\":4095:4136   */\n      tag_121\n      jump\t// in\n    tag_189:\n        /* \"#utility.yul\":3814:4142   */\n      pop\n        /* \"#utility.yul\":3730:4142   */\n      swap4\n      swap3\n      pop\n      pop\n      pop\n      jump\t// out\n        /* \"#utility.yul\":4162:4502   */\n    tag_123:\n        /* \"#utility.yul\":4218:4223   */\n      0x00\n        /* \"#utility.yul\":4267:4270   */\n      dup3\n        /* \"#utility.yul\":4260:4264   */\n      0x1f\n        /* \"#utility.yul\":4252:4258   */\n      dup4\n        /* \"#utility.yul\":4248:4265   */\n      add\n        /* \"#utility.yul\":4244:4271   */\n      slt\n        /* \"#utility.yul\":4234:4356   */\n      tag_191\n      jumpi\n        /* \"#utility.yul\":4275:4354   */\n      tag_192\n      tag_114\n      jump\t// in\n    tag_192:\n        /* \"#utility.yul\":4234:4356   */\n    tag_191:\n        /* \"#utility.yul\":4392:4398   */\n      dup2\n        /* \"#utility.yul\":4379:4399   */\n      calldataload\n        /* \"#utility.yul\":4417:4496   */\n      tag_193\n        /* \"#utility.yul\":4492:4495   */\n      dup5\n        /* \"#utility.yul\":4484:4490   */\n      dup3\n        /* \"#utility.yul\":4477:4481   */\n      0x20\n        /* \"#utility.yul\":4469:4475   */\n      dup7\n        /* \"#utility.yul\":4465:4482   */\n      add\n        /* \"#utility.yul\":4417:4496   */\n      tag_122\n      jump\t// in\n    tag_193:\n        /* \"#utility.yul\":4408:4496   */\n      swap2\n      pop\n        /* \"#utility.yul\":4224:4502   */\n      pop\n        /* \"#utility.yul\":4162:4502   */\n      swap3\n      swap2\n      pop\n      pop\n      jump\t// out\n        /* \"#utility.yul\":4508:4612   */\n    tag_124:\n        /* \"#utility.yul\":4553:4560   */\n      0x00\n        /* \"#utility.yul\":4582:4606   */\n      tag_195\n        /* \"#utility.yul\":4600:4605   */\n      dup3\n        /* \"#utility.yul\":4582:4606   */\n      tag_108\n      jump\t// in\n    tag_195:\n        /* \"#utility.yul\":4571:4606   */\n      swap1\n      pop\n        /* \"#utility.yul\":4508:4612   */\n      swap2\n      swap1\n      pop\n      jump\t// out\n        /* \"#utility.yul\":4618:4756   */\n    tag_125:\n        /* \"#utility.yul\":4699:4731   */\n      tag_197\n        /* \"#utility.yul\":4725:4730   */\n      dup2\n        /* \"#utility.yul\":4699:4731   */\n      tag_124\n      jump\t// in\n    tag_197:\n        /* \"#utility.yul\":4692:4697   */\n      dup2\n        /* \"#utility.yul\":4689:4732   */\n      eq\n        /* \"#utility.yul\":4679:4750   */\n      tag_198\n      jumpi\n        /* \"#utility.yul\":4746:4747   */\n      0x00\n        /* \"#utility.yul\":4743:4744   */\n      dup1\n        /* \"#utility.yul\":4736:4748   */\n      revert\n        /* \"#utility.yul\":4679:4750   */\n    tag_198:\n        /* \"#utility.yul\":4618:4756   */\n      pop\n      jump\t// out\n        /* \"#utility.yul\":4762:4917   */\n    tag_126:\n        /* \"#utility.yul\":4816:4821   */\n      0x00\n        /* \"#utility.yul\":4854:4860   */\n      dup2\n        /* \"#utility.yul\":4841:4861   */\n      calldataload\n        /* \"#utility.yul\":4832:4861   */\n      swap1\n      pop\n        /* \"#utility.yul\":4870:4911   */\n      tag_200\n        /* \"#utility.yul\":4905:4910   */\n      dup2\n        /* \"#utility.yul\":4870:4911   */\n      tag_125\n      jump\t// in\n    tag_200:\n        /* \"#utility.yul\":4762:4917   */\n      swap3\n      swap2\n      pop\n      pop\n      jump\t// out\n        /* \"#utility.yul\":4923:5738   */\n    tag_26:\n        /* \"#utility.yul\":5018:5024   */\n      0x00\n        /* \"#utility.yul\":5026:5032   */\n      dup1\n        /* \"#utility.yul\":5034:5040   */\n      0x00\n        /* \"#utility.yul\":5083:5085   */\n      0x60\n        /* \"#utility.yul\":5071:5080   */\n      dup5\n        /* \"#utility.yul\":5062:5069   */\n      dup7\n        /* \"#utility.yul\":5058:5081   */\n      sub\n        /* \"#utility.yul\":5054:5086   */\n      slt\n        /* \"#utility.yul\":5051:5170   */\n      iszero\n      tag_202\n      jumpi\n        /* \"#utility.yul\":5089:5168   */\n      tag_203\n      tag_103\n      jump\t// in\n    tag_203:\n        /* \"#utility.yul\":5051:5170   */\n    tag_202:\n        /* \"#utility.yul\":5209:5210   */\n      0x00\n        /* \"#utility.yul\":5234:5287   */\n      tag_204\n        /* \"#utility.yul\":5279:5286   */\n      dup7\n        /* \"#utility.yul\":5270:5276   */\n      dup3\n        /* \"#utility.yul\":5259:5268   */\n      dup8\n        /* \"#utility.yul\":5255:5277   */\n      add\n        /* \"#utility.yul\":5234:5287   */\n      tag_107\n      jump\t// in\n    tag_204:\n        /* \"#utility.yul\":5224:5287   */\n      swap4\n      pop\n        /* \"#utility.yul\":5180:5297   */\n      pop\n        /* \"#utility.yul\":5364:5366   */\n      0x20\n        /* \"#utility.yul\":5353:5362   */\n      dup5\n        /* \"#utility.yul\":5349:5367   */\n      add\n        /* \"#utility.yul\":5336:5368   */\n      calldataload\n        /* \"#utility.yul\":5395:5413   */\n      0xffffffffffffffff\n        /* \"#utility.yul\":5387:5393   */\n      dup2\n        /* \"#utility.yul\":5384:5414   */\n      gt\n        /* \"#utility.yul\":5381:5498   */\n      iszero\n      tag_205\n      jumpi\n        /* \"#utility.yul\":5417:5496   */\n      tag_206\n      tag_104\n      jump\t// in\n    tag_206:\n        /* \"#utility.yul\":5381:5498   */\n    tag_205:\n        /* \"#utility.yul\":5522:5585   */\n      tag_207\n        /* \"#utility.yul\":5577:5584   */\n      dup7\n        /* \"#utility.yul\":5568:5574   */\n      dup3\n        /* \"#utility.yul\":5557:5566   */\n      dup8\n        /* \"#utility.yul\":5553:5575   */\n      add\n        /* \"#utility.yul\":5522:5585   */\n      tag_123\n      jump\t// in\n    tag_207:\n        /* \"#utility.yul\":5512:5585   */\n      swap3\n      pop\n        /* \"#utility.yul\":5307:5595   */\n      pop\n        /* \"#utility.yul\":5634:5636   */\n      0x40\n        /* \"#utility.yul\":5660:5721   */\n      tag_208\n        /* \"#utility.yul\":5713:5720   */\n      dup7\n        /* \"#utility.yul\":5704:5710   */\n      dup3\n        /* \"#utility.yul\":5693:5702   */\n      dup8\n        /* \"#utility.yul\":5689:5711   */\n      add\n        /* \"#utility.yul\":5660:5721   */\n      tag_126\n      jump\t// in\n    tag_208:\n        /* \"#utility.yul\":5650:5721   */\n      swap2\n      pop\n        /* \"#utility.yul\":5605:5731   */\n      pop\n        /* \"#utility.yul\":4923:5738   */\n      swap3\n      pop\n      swap3\n      pop\n      swap3\n      jump\t// out\n        /* \"#utility.yul\":5744:5843   */\n    tag_127:\n        /* \"#utility.yul\":5796:5802   */\n      0x00\n        /* \"#utility.yul\":5830:5835   */\n      dup2\n        /* \"#utility.yul\":5824:5836   */\n      mload\n        /* \"#utility.yul\":5814:5836   */\n      swap1\n      pop\n        /* \"#utility.yul\":5744:5843   */\n      swap2\n      swap1\n      pop\n      jump\t// out\n        /* \"#utility.yul\":5849:6018   */\n    tag_128:\n        /* \"#utility.yul\":5933:5944   */\n      0x00\n        /* \"#utility.yul\":5967:5973   */\n      dup3\n        /* \"#utility.yul\":5962:5965   */\n      dup3\n        /* \"#utility.yul\":5955:5974   */\n      mstore\n        /* \"#utility.yul\":6007:6011   */\n      0x20\n        /* \"#utility.yul\":6002:6005   */\n      dup3\n        /* \"#utility.yul\":5998:6012   */\n      add\n        /* \"#utility.yul\":5983:6012   */\n      swap1\n      pop\n        /* \"#utility.yul\":5849:6018   */\n      swap3\n      swap2\n      pop\n      pop\n      jump\t// out\n        /* \"#utility.yul\":6024:6331   */\n    tag_129:\n        /* \"#utility.yul\":6092:6093   */\n      0x00\n        /* \"#utility.yul\":6102:6215   */\n    tag_212:\n        /* \"#utility.yul\":6116:6122   */\n      dup4\n        /* \"#utility.yul\":6113:6114   */\n      dup2\n        /* \"#utility.yul\":6110:6123   */\n      lt\n        /* \"#utility.yul\":6102:6215   */\n      iszero\n      tag_214\n      jumpi\n        /* \"#utility.yul\":6201:6202   */\n      dup1\n        /* \"#utility.yul\":6196:6199   */\n      dup3\n        /* \"#utility.yul\":6192:6203   */\n      add\n        /* \"#utility.yul\":6186:6204   */\n      mload\n        /* \"#utility.yul\":6182:6183   */\n      dup2\n        /* \"#utility.yul\":6177:6180   */\n      dup5\n        /* \"#utility.yul\":6173:6184   */\n      add\n        /* \"#utility.yul\":6166:6205   */\n      mstore\n        /* \"#utility.yul\":6138:6140   */\n      0x20\n        /* \"#utility.yul\":6135:6136   */\n      dup2\n        /* \"#utility.yul\":6131:6141   */\n      add\n        /* \"#utility.yul\":6126:6141   */\n      swap1\n      pop\n        /* \"#utility.yul\":6102:6215   */\n      jump(tag_212)\n    tag_214:\n        /* \"#utility.yul\":6233:6239   */\n      dup4\n        /* \"#utility.yul\":6230:6231   */\n      dup2\n        /* \"#utility.yul\":6227:6240   */\n      gt\n        /* \"#utility.yul\":6224:6325   */\n      iszero\n      tag_215\n      jumpi\n        /* \"#utility.yul\":6313:6314   */\n      0x00\n        /* \"#utility.yul\":6304:6310   */\n      dup5\n        /* \"#utility.yul\":6299:6302   */\n      dup5\n        /* \"#utility.yul\":6295:6311   */\n      add\n        /* \"#utility.yul\":6288:6315   */\n      mstore\n        /* \"#utility.yul\":6224:6325   */\n    tag_215:\n        /* \"#utility.yul\":6073:6331   */\n      pop\n        /* \"#utility.yul\":6024:6331   */\n      pop\n      pop\n      pop\n      jump\t// out\n        /* \"#utility.yul\":6337:6701   */\n    tag_130:\n        /* \"#utility.yul\":6425:6428   */\n      0x00\n        /* \"#utility.yul\":6453:6492   */\n      tag_217\n        /* \"#utility.yul\":6486:6491   */\n      dup3\n        /* \"#utility.yul\":6453:6492   */\n      tag_127\n      jump\t// in\n    tag_217:\n        /* \"#utility.yul\":6508:6579   */\n      tag_218\n        /* \"#utility.yul\":6572:6578   */\n      dup2\n        /* \"#utility.yul\":6567:6570   */\n      dup6\n        /* \"#utility.yul\":6508:6579   */\n      tag_128\n      jump\t// in\n    tag_218:\n        /* \"#utility.yul\":6501:6579   */\n      swap4\n      pop\n        /* \"#utility.yul\":6588:6640   */\n      tag_219\n        /* \"#utility.yul\":6633:6639   */\n      dup2\n        /* \"#utility.yul\":6628:6631   */\n      dup6\n        /* \"#utility.yul\":6621:6625   */\n      0x20\n        /* \"#utility.yul\":6614:6619   */\n      dup7\n        /* \"#utility.yul\":6610:6626   */\n      add\n        /* \"#utility.yul\":6588:6640   */\n      tag_129\n      jump\t// in\n    tag_219:\n        /* \"#utility.yul\":6665:6694   */\n      tag_220\n        /* \"#utility.yul\":6687:6693   */\n      dup2\n        /* \"#utility.yul\":6665:6694   */\n      tag_116\n      jump\t// in\n    tag_220:\n        /* \"#utility.yul\":6660:6663   */\n      dup5\n        /* \"#utility.yul\":6656:6695   */\n      add\n        /* \"#utility.yul\":6649:6695   */\n      swap2\n      pop\n        /* \"#utility.yul\":6429:6701   */\n      pop\n        /* \"#utility.yul\":6337:6701   */\n      swap3\n      swap2\n      pop\n      pop\n      jump\t// out\n        /* \"#utility.yul\":6707:6825   */\n    tag_131:\n        /* \"#utility.yul\":6794:6818   */\n      tag_222\n        /* \"#utility.yul\":6812:6817   */\n      dup2\n        /* \"#utility.yul\":6794:6818   */\n      tag_105\n      jump\t// in\n    tag_222:\n        /* \"#utility.yul\":6789:6792   */\n      dup3\n        /* \"#utility.yul\":6782:6819   */\n      mstore\n        /* \"#utility.yul\":6707:6825   */\n      pop\n      pop\n      jump\t// out\n        /* \"#utility.yul\":6831:6973   */\n    tag_132:\n        /* \"#utility.yul\":6934:6966   */\n      tag_224\n        /* \"#utility.yul\":6960:6965   */\n      dup2\n        /* \"#utility.yul\":6934:6966   */\n      tag_124\n      jump\t// in\n    tag_224:\n        /* \"#utility.yul\":6929:6932   */\n      dup3\n        /* \"#utility.yul\":6922:6967   */\n      mstore\n        /* \"#utility.yul\":6831:6973   */\n      pop\n      pop\n      jump\t// out\n        /* \"#utility.yul\":6979:7754   */\n    tag_33:\n        /* \"#utility.yul\":7214:7218   */\n      0x00\n        /* \"#utility.yul\":7252:7255   */\n      0xa0\n        /* \"#utility.yul\":7241:7250   */\n      dup3\n        /* \"#utility.yul\":7237:7256   */\n      add\n        /* \"#utility.yul\":7229:7256   */\n      swap1\n      pop\n        /* \"#utility.yul\":7302:7311   */\n      dup2\n        /* \"#utility.yul\":7296:7300   */\n      dup2\n        /* \"#utility.yul\":7292:7312   */\n      sub\n        /* \"#utility.yul\":7288:7289   */\n      0x00\n        /* \"#utility.yul\":7277:7286   */\n      dup4\n        /* \"#utility.yul\":7273:7290   */\n      add\n        /* \"#utility.yul\":7266:7313   */\n      mstore\n        /* \"#utility.yul\":7330:7408   */\n      tag_226\n        /* \"#utility.yul\":7403:7407   */\n      dup2\n        /* \"#utility.yul\":7394:7400   */\n      dup9\n        /* \"#utility.yul\":7330:7408   */\n      tag_130\n      jump\t// in\n    tag_226:\n        /* \"#utility.yul\":7322:7408   */\n      swap1\n      pop\n        /* \"#utility.yul\":7418:7490   */\n      tag_227\n        /* \"#utility.yul\":7486:7488   */\n      0x20\n        /* \"#utility.yul\":7475:7484   */\n      dup4\n        /* \"#utility.yul\":7471:7489   */\n      add\n        /* \"#utility.yul\":7462:7468   */\n      dup8\n        /* \"#utility.yul\":7418:7490   */\n      tag_131\n      jump\t// in\n    tag_227:\n        /* \"#utility.yul\":7500:7588   */\n      tag_228\n        /* \"#utility.yul\":7584:7586   */\n      0x40\n        /* \"#utility.yul\":7573:7582   */\n      dup4\n        /* \"#utility.yul\":7569:7587   */\n      add\n        /* \"#utility.yul\":7560:7566   */\n      dup7\n        /* \"#utility.yul\":7500:7588   */\n      tag_132\n      jump\t// in\n    tag_228:\n        /* \"#utility.yul\":7598:7664   */\n      tag_229\n        /* \"#utility.yul\":7660:7662   */\n      0x60\n        /* \"#utility.yul\":7649:7658   */\n      dup4\n        /* \"#utility.yul\":7645:7663   */\n      add\n        /* \"#utility.yul\":7636:7642   */\n      dup6\n        /* \"#utility.yul\":7598:7664   */\n      tag_113\n      jump\t// in\n    tag_229:\n        /* \"#utility.yul\":7674:7747   */\n      tag_230\n        /* \"#utility.yul\":7742:7745   */\n      0x80\n        /* \"#utility.yul\":7731:7740   */\n      dup4\n        /* \"#utility.yul\":7727:7746   */\n      add\n        /* \"#utility.yul\":7718:7724   */\n      dup5\n        /* \"#utility.yul\":7674:7747   */\n      tag_131\n      jump\t// in\n    tag_230:\n        /* \"#utility.yul\":6979:7754   */\n      swap7\n      swap6\n      pop\n      pop\n      pop\n      pop\n      pop\n      pop\n      jump\t// out\n        /* \"#utility.yul\":7760:7982   */\n    tag_38:\n        /* \"#utility.yul\":7853:7857   */\n      0x00\n        /* \"#utility.yul\":7891:7893   */\n      0x20\n        /* \"#utility.yul\":7880:7889   */\n      dup3\n        /* \"#utility.yul\":7876:7894   */\n      add\n        /* \"#utility.yul\":7868:7894   */\n      swap1\n      pop\n        /* \"#utility.yul\":7904:7975   */\n      tag_232\n        /* \"#utility.yul\":7972:7973   */\n      0x00\n        /* \"#utility.yul\":7961:7970   */\n      dup4\n        /* \"#utility.yul\":7957:7974   */\n      add\n        /* \"#utility.yul\":7948:7954   */\n      dup5\n        /* \"#utility.yul\":7904:7975   */\n      tag_131\n      jump\t// in\n    tag_232:\n        /* \"#utility.yul\":7760:7982   */\n      swap3\n      swap2\n      pop\n      pop\n      jump\t// out\n        /* \"#utility.yul\":7988:8106   */\n    tag_133:\n        /* \"#utility.yul\":8075:8099   */\n      tag_234\n        /* \"#utility.yul\":8093:8098   */\n      dup2\n        /* \"#utility.yul\":8075:8099   */\n      tag_109\n      jump\t// in\n    tag_234:\n        /* \"#utility.yul\":8070:8073   */\n      dup3\n        /* \"#utility.yul\":8063:8100   */\n      mstore\n        /* \"#utility.yul\":7988:8106   */\n      pop\n      pop\n      jump\t// out\n        /* \"#utility.yul\":8112:8334   */\n    tag_43:\n        /* \"#utility.yul\":8205:8209   */\n      0x00\n        /* \"#utility.yul\":8243:8245   */\n      0x20\n        /* \"#utility.yul\":8232:8241   */\n      dup3\n        /* \"#utility.yul\":8228:8246   */\n      add\n        /* \"#utility.yul\":8220:8246   */\n      swap1\n      pop\n        /* \"#utility.yul\":8256:8327   */\n      tag_236\n        /* \"#utility.yul\":8324:8325   */\n      0x00\n        /* \"#utility.yul\":8313:8322   */\n      dup4\n        /* \"#utility.yul\":8309:8326   */\n      add\n        /* \"#utility.yul\":8300:8306   */\n      dup5\n        /* \"#utility.yul\":8256:8327   */\n      tag_133\n      jump\t// in\n    tag_236:\n        /* \"#utility.yul\":8112:8334   */\n      swap3\n      swap2\n      pop\n      pop\n      jump\t// out\n        /* \"#utility.yul\":8340:8520   */\n    tag_59:\n        /* \"#utility.yul\":8388:8465   */\n      0x4e487b7100000000000000000000000000000000000000000000000000000000\n        /* \"#utility.yul\":8385:8386   */\n      0x00\n        /* \"#utility.yul\":8378:8466   */\n      mstore\n        /* \"#utility.yul\":8485:8489   */\n      0x32\n        /* \"#utility.yul\":8482:8483   */\n      0x04\n        /* \"#utility.yul\":8475:8490   */\n      mstore\n        /* \"#utility.yul\":8509:8513   */\n      0x24\n        /* \"#utility.yul\":8506:8507   */\n      0x00\n        /* \"#utility.yul\":8499:8514   */\n      revert\n        /* \"#utility.yul\":8526:8706   */\n    tag_134:\n        /* \"#utility.yul\":8574:8651   */\n      0x4e487b7100000000000000000000000000000000000000000000000000000000\n        /* \"#utility.yul\":8571:8572   */\n      0x00\n        /* \"#utility.yul\":8564:8652   */\n      mstore\n        /* \"#utility.yul\":8671:8675   */\n      0x12\n        /* \"#utility.yul\":8668:8669   */\n      0x04\n        /* \"#utility.yul\":8661:8676   */\n      mstore\n        /* \"#utility.yul\":8695:8699   */\n      0x24\n        /* \"#utility.yul\":8692:8693   */\n      0x00\n        /* \"#utility.yul\":8685:8700   */\n      revert\n        /* \"#utility.yul\":8712:8892   */\n    tag_135:\n        /* \"#utility.yul\":8760:8837   */\n      0x4e487b7100000000000000000000000000000000000000000000000000000000\n        /* \"#utility.yul\":8757:8758   */\n      0x00\n        /* \"#utility.yul\":8750:8838   */\n      mstore\n        /* \"#utility.yul\":8857:8861   */\n      0x11\n        /* \"#utility.yul\":8854:8855   */\n      0x04\n        /* \"#utility.yul\":8847:8862   */\n      mstore\n        /* \"#utility.yul\":8881:8885   */\n      0x24\n        /* \"#utility.yul\":8878:8879   */\n      0x00\n        /* \"#utility.yul\":8871:8886   */\n      revert\n        /* \"#utility.yul\":8898:9083   */\n    tag_63:\n        /* \"#utility.yul\":8938:8939   */\n      0x00\n        /* \"#utility.yul\":8955:8975   */\n      tag_241\n        /* \"#utility.yul\":8973:8974   */\n      dup3\n        /* \"#utility.yul\":8955:8975   */\n      tag_105\n      jump\t// in\n    tag_241:\n        /* \"#utility.yul\":8950:8975   */\n      swap2\n      pop\n        /* \"#utility.yul\":8989:9009   */\n      tag_242\n        /* \"#utility.yul\":9007:9008   */\n      dup4\n        /* \"#utility.yul\":8989:9009   */\n      tag_105\n      jump\t// in\n    tag_242:\n        /* \"#utility.yul\":8984:9009   */\n      swap3\n      pop\n        /* \"#utility.yul\":9028:9029   */\n      dup3\n        /* \"#utility.yul\":9018:9053   */\n      tag_243\n      jumpi\n        /* \"#utility.yul\":9033:9051   */\n      tag_244\n      tag_134\n      jump\t// in\n    tag_244:\n        /* \"#utility.yul\":9018:9053   */\n    tag_243:\n        /* \"#utility.yul\":9075:9076   */\n      dup3\n        /* \"#utility.yul\":9072:9073   */\n      dup3\n        /* \"#utility.yul\":9068:9077   */\n      div\n        /* \"#utility.yul\":9063:9077   */\n      swap1\n      pop\n        /* \"#utility.yul\":8898:9083   */\n      swap3\n      swap2\n      pop\n      pop\n      jump\t// out\n        /* \"#utility.yul\":9089:9269   */\n    tag_136:\n        /* \"#utility.yul\":9137:9214   */\n      0x4e487b7100000000000000000000000000000000000000000000000000000000\n        /* \"#utility.yul\":9134:9135   */\n      0x00\n        /* \"#utility.yul\":9127:9215   */\n      mstore\n        /* \"#utility.yul\":9234:9238   */\n      0x22\n        /* \"#utility.yul\":9231:9232   */\n      0x04\n        /* \"#utility.yul\":9224:9239   */\n      mstore\n        /* \"#utility.yul\":9258:9262   */\n      0x24\n        /* \"#utility.yul\":9255:9256   */\n      0x00\n        /* \"#utility.yul\":9248:9263   */\n      revert\n        /* \"#utility.yul\":9275:9595   */\n    tag_76:\n        /* \"#utility.yul\":9319:9325   */\n      0x00\n        /* \"#utility.yul\":9356:9357   */\n      0x02\n        /* \"#utility.yul\":9350:9354   */\n      dup3\n        /* \"#utility.yul\":9346:9358   */\n      div\n        /* \"#utility.yul\":9336:9358   */\n      swap1\n      pop\n        /* \"#utility.yul\":9403:9404   */\n      0x01\n        /* \"#utility.yul\":9397:9401   */\n      dup3\n        /* \"#utility.yul\":9393:9405   */\n      and\n        /* \"#utility.yul\":9424:9442   */\n      dup1\n        /* \"#utility.yul\":9414:9495   */\n      tag_247\n      jumpi\n        /* \"#utility.yul\":9480:9484   */\n      0x7f\n        /* \"#utility.yul\":9472:9478   */\n      dup3\n        /* \"#utility.yul\":9468:9485   */\n      and\n        /* \"#utility.yul\":9458:9485   */\n      swap2\n      pop\n        /* \"#utility.yul\":9414:9495   */\n    tag_247:\n        /* \"#utility.yul\":9542:9544   */\n      0x20\n        /* \"#utility.yul\":9534:9540   */\n      dup3\n        /* \"#utility.yul\":9531:9545   */\n      lt\n        /* \"#utility.yul\":9511:9529   */\n      dup2\n        /* \"#utility.yul\":9508:9546   */\n      eq\n        /* \"#utility.yul\":9505:9589   */\n      iszero\n      tag_248\n      jumpi\n        /* \"#utility.yul\":9561:9579   */\n      tag_249\n      tag_136\n      jump\t// in\n    tag_249:\n        /* \"#utility.yul\":9505:9589   */\n    tag_248:\n        /* \"#utility.yul\":9326:9595   */\n      pop\n        /* \"#utility.yul\":9275:9595   */\n      swap2\n      swap1\n      pop\n      jump\t// out\n        /* \"#utility.yul\":9601:9834   */\n    tag_84:\n        /* \"#utility.yul\":9640:9643   */\n      0x00\n        /* \"#utility.yul\":9663:9687   */\n      tag_251\n        /* \"#utility.yul\":9681:9686   */\n      dup3\n        /* \"#utility.yul\":9663:9687   */\n      tag_105\n      jump\t// in\n    tag_251:\n        /* \"#utility.yul\":9654:9687   */\n      swap2\n      pop\n        /* \"#utility.yul\":9709:9775   */\n      0xffffffffffffffffffffffffffffffffffffffffffffffffffffffffffffffff\n        /* \"#utility.yul\":9702:9707   */\n      dup3\n        /* \"#utility.yul\":9699:9776   */\n      eq\n        /* \"#utility.yul\":9696:9799   */\n      iszero\n      tag_252\n      jumpi\n        /* \"#utility.yul\":9779:9797   */\n      tag_253\n      tag_135\n      jump\t// in\n    tag_253:\n        /* \"#utility.yul\":9696:9799   */\n    tag_252:\n        /* \"#utility.yul\":9826:9827   */\n      0x01\n        /* \"#utility.yul\":9819:9824   */\n      dup3\n        /* \"#utility.yul\":9815:9828   */\n      add\n        /* \"#utility.yul\":9808:9828   */\n      swap1\n      pop\n        /* \"#utility.yul\":9601:9834   */\n      swap2\n      swap1\n      pop\n      jump\t// out\n\n    auxdata: 0xa264697066735822122040c44feaa46258307948a716388d54c8600c7c951d35f8f3448dcbb8b6bd22d364736f6c63430008090033\n}\n","bytecode":{"linkReferences":{},"object":"60806040523480156200001157600080fd5b5060405162000f9238038062000f92833981810160405281019062000037919062000134565b80600160006101000a81548173ffffffffffffffffffffffffffffffffffffffff021916908373ffffffffffffffffffffffffffffffffffffffff16021790555081600281905550600060048190555050506200017b565b600080fd5b6000819050919050565b620000a98162000094565b8114620000b557600080fd5b50565b600081519050620000c9816200009e565b92915050565b600073ffffffffffffffffffffffffffffffffffffffff82169050919050565b6000620000fc82620000cf565b9050919050565b6200010e81620000ef565b81146200011a57600080fd5b50565b6000815190506200012e8162000103565b92915050565b600080604083850312156200014e576200014d6200008f565b5b60006200015e85828601620000b8565b925050602062000171858286016200011d565b9150509250929050565b610e07806200018b6000396000f3fe6080604052600436106100865760003560e01c806382fde0931161005957806382fde0931461014e5780638da5cb5b14610179578063aaffadf3146101a4578063d7bb99ba146101cf578063d7d1bbdb146101d957610086565b8063034410061461008b5780630a144391146100a75780637d5cadd2146100e457806381d12c581461010d575b600080fd5b6100a560048036038101906100a09190610843565b610202565b005b3480156100b357600080fd5b506100ce60048036038101906100c991906108ce565b61032e565b6040516100db9190610916565b60405180910390f35b3480156100f057600080fd5b5061010b60048036038101906101069190610ab5565b61034e565b005b34801561011957600080fd5b50610134600480360381019061012f9190610843565b61045d565b604051610145959493929190610bca565b60405180910390f35b34801561015a57600080fd5b50610163610558565b6040516101709190610c24565b60405180910390f35b34801561018557600080fd5b5061018e61055e565b60405161019b9190610c4e565b60405180910390f35b3480156101b057600080fd5b506101b9610584565b6040516101c69190610c24565b60405180910390f35b6101d761058a565b005b3480156101e557600080fd5b5061020060048036038101906101fb9190610843565b61060a565b005b600160009054906101000a900473ffffffffffffffffffffffffffffffffffffffff1673ffffffffffffffffffffffffffffffffffffffff163373ffffffffffffffffffffffffffffffffffffffff161461025c57600080fd5b600080828154811061027157610270610c69565b5b906000526020600020906005020190508060020160149054906101000a900460ff161561029d57600080fd5b60026004546102ac9190610cf6565b8160030154116102bb57600080fd5b8060020160009054906101000a900473ffffffffffffffffffffffffffffffffffffffff1673ffffffffffffffffffffffffffffffffffffffff166108fc82600101549081150290604051600060405180830381858888f19350505050158015610329573d6000803e3d6000fd5b505050565b60036020528060005260406000206000915054906101000a900460ff1681565b600160009054906101000a900473ffffffffffffffffffffffffffffffffffffffff1673ffffffffffffffffffffffffffffffffffffffff163373ffffffffffffffffffffffffffffffffffffffff16146103a857600080fd5b6000806001816001815401808255809150500390600052602060002090600502019050828160000190805190602001906103e3929190610756565b50838160010181905550818160020160006101000a81548173ffffffffffffffffffffffffffffffffffffffff021916908373ffffffffffffffffffffffffffffffffffffffff16021790555060008160020160146101000a81548160ff0219169083151502179055506000816003018190555050505050565b6000818154811061046d57600080fd5b906000526020600020906005020160009150905080600001805461049090610d56565b80601f01602080910402602001604051908101604052809291908181526020018280546104bc90610d56565b80156105095780601f106104de57610100808354040283529160200191610509565b820191906000526020600020905b8154815290600101906020018083116104ec57829003601f168201915b5050505050908060010154908060020160009054906101000a900473ffffffffffffffffffffffffffffffffffffffff16908060020160149054906101000a900460ff16908060030154905085565b60045481565b600160009054906101000a900473ffffffffffffffffffffffffffffffffffffffff1681565b60025481565b600254341161059857600080fd5b6001600360003373ffffffffffffffffffffffffffffffffffffffff1673ffffffffffffffffffffffffffffffffffffffff16815260200190815260200160002060006101000a81548160ff0219169083151502179055506004600081548092919061060390610d88565b9190505550565b600080828154811061061f5761061e610c69565b5b90600052602060002090600502019050600360003373ffffffffffffffffffffffffffffffffffffffff1673ffffffffffffffffffffffffffffffffffffffff16815260200190815260200160002060009054906101000a900460ff1661068557600080fd5b8060040160003373ffffffffffffffffffffffffffffffffffffffff1673ffffffffffffffffffffffffffffffffffffffff16815260200190815260200160002060009054906101000a900460ff16156106de57600080fd5b60018160040160003373ffffffffffffffffffffffffffffffffffffffff1673ffffffffffffffffffffffffffffffffffffffff16815260200190815260200160002060006101000a81548160ff02191690831515021790555080600301600081548092919061074d90610d88565b91905055505050565b82805461076290610d56565b90600052602060002090601f01602090048101928261078457600085556107cb565b82601f1061079d57805160ff19168380011785556107cb565b828001600101855582156107cb579182015b828111156107ca5782518255916020019190600101906107af565b5b5090506107d891906107dc565b5090565b5b808211156107f55760008160009055506001016107dd565b5090565b6000604051905090565b600080fd5b600080fd5b6000819050919050565b6108208161080d565b811461082b57600080fd5b50565b60008135905061083d81610817565b92915050565b60006020828403121561085957610858610803565b5b60006108678482850161082e565b91505092915050565b600073ffffffffffffffffffffffffffffffffffffffff82169050919050565b600061089b82610870565b9050919050565b6108ab81610890565b81146108b657600080fd5b50565b6000813590506108c8816108a2565b92915050565b6000602082840312156108e4576108e3610803565b5b60006108f2848285016108b9565b91505092915050565b60008115159050919050565b610910816108fb565b82525050565b600060208201905061092b6000830184610907565b92915050565b600080fd5b600080fd5b6000601f19601f8301169050919050565b7f4e487b7100000000000000000000000000000000000000000000000000000000600052604160045260246000fd5b6109848261093b565b810181811067ffffffffffffffff821117156109a3576109a261094c565b5b80604052505050565b60006109b66107f9565b90506109c2828261097b565b919050565b600067ffffffffffffffff8211156109e2576109e161094c565b5b6109eb8261093b565b9050602081019050919050565b82818337600083830152505050565b6000610a1a610a15846109c7565b6109ac565b905082815260208101848484011115610a3657610a35610936565b5b610a418482856109f8565b509392505050565b600082601f830112610a5e57610a5d610931565b5b8135610a6e848260208601610a07565b91505092915050565b6000610a8282610870565b9050919050565b610a9281610a77565b8114610a9d57600080fd5b50565b600081359050610aaf81610a89565b92915050565b600080600060608486031215610ace57610acd610803565b5b6000610adc8682870161082e565b935050602084013567ffffffffffffffff811115610afd57610afc610808565b5b610b0986828701610a49565b9250506040610b1a86828701610aa0565b9150509250925092565b600081519050919050565b600082825260208201905092915050565b60005b83811015610b5e578082015181840152602081019050610b43565b83811115610b6d576000848401525b50505050565b6000610b7e82610b24565b610b888185610b2f565b9350610b98818560208601610b40565b610ba18161093b565b840191505092915050565b610bb58161080d565b82525050565b610bc481610a77565b82525050565b600060a0820190508181036000830152610be48188610b73565b9050610bf36020830187610bac565b610c006040830186610bbb565b610c0d6060830185610907565b610c1a6080830184610bac565b9695505050505050565b6000602082019050610c396000830184610bac565b92915050565b610c4881610890565b82525050565b6000602082019050610c636000830184610c3f565b92915050565b7f4e487b7100000000000000000000000000000000000000000000000000000000600052603260045260246000fd5b7f4e487b7100000000000000000000000000000000000000000000000000000000600052601260045260246000fd5b7f4e487b7100000000000000000000000000000000000000000000000000000000600052601160045260246000fd5b6000610d018261080d565b9150610d0c8361080d565b925082610d1c57610d1b610c98565b5b828204905092915050565b7f4e487b7100000000000000000000000000000000000000000000000000000000600052602260045260246000fd5b60006002820490506001821680610d6e57607f821691505b60208210811415610d8257610d81610d27565b5b50919050565b6000610d938261080d565b91507fffffffffffffffffffffffffffffffffffffffffffffffffffffffffffffffff821415610dc657610dc5610cc7565b5b60018201905091905056fea264697066735822122040c44feaa46258307948a716388d54c8600c7c951d35f8f3448dcbb8b6bd22d364736f6c63430008090033","opcodes":"PUSH1 0x80 PUSH1 0x40 MSTORE CALLVALUE DUP1 ISZERO PUSH3 0x11 JUMPI PUSH1 0x0 DUP1 REVERT JUMPDEST POP PUSH1 0x40 MLOAD PUSH3 0xF92 CODESIZE SUB DUP1 PUSH3 0xF92 DUP4 CODECOPY DUP2 DUP2 ADD PUSH1 0x40 MSTORE DUP2 ADD SWAP1 PUSH3 0x37 SWAP2 SWAP1 PUSH3 0x134 JUMP JUMPDEST DUP1 PUSH1 0x1 PUSH1 0x0 PUSH2 0x100 EXP DUP2 SLOAD DUP2 PUSH20 0xFFFFFFFFFFFFFFFFFFFFFFFFFFFFFFFFFFFFFFFF MUL NOT AND SWAP1 DUP4 PUSH20 0xFFFFFFFFFFFFFFFFFFFFFFFFFFFFFFFFFFFFFFFF AND MUL OR SWAP1 SSTORE POP DUP2 PUSH1 0x2 DUP2 SWAP1 SSTORE POP PUSH1 0x0 PUSH1 0x4 DUP2 SWAP1 SSTORE POP POP POP PUSH3 0x17B JUMP JUMPDEST PUSH1 0x0 DUP1 REVERT JUMPDEST PUSH1 0x0 DUP2 SWAP1 POP SWAP2 SWAP1 POP JUMP JUMPDEST PUSH3 0xA9 DUP2 PUSH3 0x94 JUMP JUMPDEST DUP2 EQ PUSH3 0xB5 JUMPI PUSH1 0x0 DUP1 REVERT JUMPDEST POP JUMP JUMPDEST PUSH1 0x0 DUP2 MLOAD SWAP1 POP PUSH3 0xC9 DUP2 PUSH3 0x9E JUMP JUMPDEST SWAP3 SWAP2 POP POP JUMP JUMPDEST PUSH1 0x0 PUSH20 0xFFFFFFFFFFFFFFFFFFFFFFFFFFFFFFFFFFFFFFFF DUP3 AND SWAP1 POP SWAP2 SWAP1 POP JUMP JUMPDEST PUSH1 0x0 PUSH3 0xFC DUP3 PUSH3 0xCF JUMP JUMPDEST SWAP1 POP SWAP2 SWAP1 POP JUMP JUMPDEST PUSH3 0x10E DUP2 PUSH3 0xEF JUMP JUMPDEST DUP2 EQ PUSH3 0x11A JUMPI PUSH1 0x0 DUP1 REVERT JUMPDEST POP JUMP JUMPDEST PUSH1 0x0 DUP2 MLOAD SWAP1 POP PUSH3 0x12E DUP2 PUSH3 0x103 JUMP JUMPDEST SWAP3 SWAP2 POP POP JUMP JUMPDEST PUSH1 0x0 DUP1 PUSH1 0x40 DUP4 DUP6 SUB SLT ISZERO PUSH3 0x14E JUMPI PUSH3 0x14D PUSH3 0x8F JUMP JUMPDEST JUMPDEST PUSH1 0x0 PUSH3 0x15E DUP6 DUP3 DUP7 ADD PUSH3 0xB8 JUMP JUMPDEST SWAP3 POP POP PUSH1 0x20 PUSH3 0x171 DUP6 DUP3 DUP7 ADD PUSH3 0x11D JUMP JUMPDEST SWAP2 POP POP SWAP3 POP SWAP3 SWAP1 POP JUMP JUMPDEST PUSH2 0xE07 DUP1 PUSH3 0x18B PUSH1 0x0 CODECOPY PUSH1 0x0 RETURN INVALID PUSH1 0x80 PUSH1 0x40 MSTORE PUSH1 0x4 CALLDATASIZE LT PUSH2 0x86 JUMPI PUSH1 0x0 CALLDATALOAD PUSH1 0xE0 SHR DUP1 PUSH4 0x82FDE093 GT PUSH2 0x59 JUMPI DUP1 PUSH4 0x82FDE093 EQ PUSH2 0x14E JUMPI DUP1 PUSH4 0x8DA5CB5B EQ PUSH2 0x179 JUMPI DUP1 PUSH4 0xAAFFADF3 EQ PUSH2 0x1A4 JUMPI DUP1 PUSH4 0xD7BB99BA EQ PUSH2 0x1CF JUMPI DUP1 PUSH4 0xD7D1BBDB EQ PUSH2 0x1D9 JUMPI PUSH2 0x86 JUMP JUMPDEST DUP1 PUSH4 0x3441006 EQ PUSH2 0x8B JUMPI DUP1 PUSH4 0xA144391 EQ PUSH2 0xA7 JUMPI DUP1 PUSH4 0x7D5CADD2 EQ PUSH2 0xE4 JUMPI DUP1 PUSH4 0x81D12C58 EQ PUSH2 0x10D JUMPI JUMPDEST PUSH1 0x0 DUP1 REVERT JUMPDEST PUSH2 0xA5 PUSH1 0x4 DUP1 CALLDATASIZE SUB DUP2 ADD SWAP1 PUSH2 0xA0 SWAP2 SWAP1 PUSH2 0x843 JUMP JUMPDEST PUSH2 0x202 JUMP JUMPDEST STOP JUMPDEST CALLVALUE DUP1 ISZERO PUSH2 0xB3 JUMPI PUSH1 0x0 DUP1 REVERT JUMPDEST POP PUSH2 0xCE PUSH1 0x4 DUP1 CALLDATASIZE SUB DUP2 ADD SWAP1 PUSH2 0xC9 SWAP2 SWAP1 PUSH2 0x8CE JUMP JUMPDEST PUSH2 0x32E JUMP JUMPDEST PUSH1 0x40 MLOAD PUSH2 0xDB SWAP2 SWAP1 PUSH2 0x916 JUMP JUMPDEST PUSH1 0x40 MLOAD DUP1 SWAP2 SUB SWAP1 RETURN JUMPDEST CALLVALUE DUP1 ISZERO PUSH2 0xF0 JUMPI PUSH1 0x0 DUP1 REVERT JUMPDEST POP PUSH2 0x10B PUSH1 0x4 DUP1 CALLDATASIZE SUB DUP2 ADD SWAP1 PUSH2 0x106 SWAP2 SWAP1 PUSH2 0xAB5 JUMP JUMPDEST PUSH2 0x34E JUMP JUMPDEST STOP JUMPDEST CALLVALUE DUP1 ISZERO PUSH2 0x119 JUMPI PUSH1 0x0 DUP1 REVERT JUMPDEST POP PUSH2 0x134 PUSH1 0x4 DUP1 CALLDATASIZE SUB DUP2 ADD SWAP1 PUSH2 0x12F SWAP2 SWAP1 PUSH2 0x843 JUMP JUMPDEST PUSH2 0x45D JUMP JUMPDEST PUSH1 0x40 MLOAD PUSH2 0x145 SWAP6 SWAP5 SWAP4 SWAP3 SWAP2 SWAP1 PUSH2 0xBCA JUMP JUMPDEST PUSH1 0x40 MLOAD DUP1 SWAP2 SUB SWAP1 RETURN JUMPDEST CALLVALUE DUP1 ISZERO PUSH2 0x15A JUMPI PUSH1 0x0 DUP1 REVERT JUMPDEST POP PUSH2 0x163 PUSH2 0x558 JUMP JUMPDEST PUSH1 0x40 MLOAD PUSH2 0x170 SWAP2 SWAP1 PUSH2 0xC24 JUMP JUMPDEST PUSH1 0x40 MLOAD DUP1 SWAP2 SUB SWAP1 RETURN JUMPDEST CALLVALUE DUP1 ISZERO PUSH2 0x185 JUMPI PUSH1 0x0 DUP1 REVERT JUMPDEST POP PUSH2 0x18E PUSH2 0x55E JUMP JUMPDEST PUSH1 0x40 MLOAD PUSH2 0x19B SWAP2 SWAP1 PUSH2 0xC4E JUMP JUMPDEST PUSH1 0x40 MLOAD DUP1 SWAP2 SUB SWAP1 RETURN JUMPDEST CALLVALUE DUP1 ISZERO PUSH2 0x1B0 JUMPI PUSH1 0x0 DUP1 REVERT JUMPDEST POP PUSH2 0x1B9 PUSH2 0x584 JUMP JUMPDEST PUSH1 0x40 MLOAD PUSH2 0x1C6 SWAP2 SWAP1 PUSH2 0xC24 JUMP JUMPDEST PUSH1 0x40 MLOAD DUP1 SWAP2 SUB SWAP1 RETURN JUMPDEST PUSH2 0x1D7 PUSH2 0x58A JUMP JUMPDEST STOP JUMPDEST CALLVALUE DUP1 ISZERO PUSH2 0x1E5 JUMPI PUSH1 0x0 DUP1 REVERT JUMPDEST POP PUSH2 0x200 PUSH1 0x4 DUP1 CALLDATASIZE SUB DUP2 ADD SWAP1 PUSH2 0x1FB SWAP2 SWAP1 PUSH2 0x843 JUMP JUMPDEST PUSH2 0x60A JUMP JUMPDEST STOP JUMPDEST PUSH1 0x1 PUSH1 0x0 SWAP1 SLOAD SWAP1 PUSH2 0x100 EXP SWAP1 DIV PUSH20 0xFFFFFFFFFFFFFFFFFFFFFFFFFFFFFFFFFFFFFFFF AND PUSH20 0xFFFFFFFFFFFFFFFFFFFFFFFFFFFFFFFFFFFFFFFF AND CALLER PUSH20 0xFFFFFFFFFFFFFFFFFFFFFFFFFFFFFFFFFFFFFFFF AND EQ PUSH2 0x25C JUMPI PUSH1 0x0 DUP1 REVERT JUMPDEST PUSH1 0x0 DUP1 DUP3 DUP2 SLOAD DUP2 LT PUSH2 0x271 JUMPI PUSH2 0x270 PUSH2 0xC69 JUMP JUMPDEST JUMPDEST SWAP1 PUSH1 0x0 MSTORE PUSH1 0x20 PUSH1 0x0 KECCAK256 SWAP1 PUSH1 0x5 MUL ADD SWAP1 POP DUP1 PUSH1 0x2 ADD PUSH1 0x14 SWAP1 SLOAD SWAP1 PUSH2 0x100 EXP SWAP1 DIV PUSH1 0xFF AND ISZERO PUSH2 0x29D JUMPI PUSH1 0x0 DUP1 REVERT JUMPDEST PUSH1 0x2 PUSH1 0x4 SLOAD PUSH2 0x2AC SWAP2 SWAP1 PUSH2 0xCF6 JUMP JUMPDEST DUP2 PUSH1 0x3 ADD SLOAD GT PUSH2 0x2BB JUMPI PUSH1 0x0 DUP1 REVERT JUMPDEST DUP1 PUSH1 0x2 ADD PUSH1 0x0 SWAP1 SLOAD SWAP1 PUSH2 0x100 EXP SWAP1 DIV PUSH20 0xFFFFFFFFFFFFFFFFFFFFFFFFFFFFFFFFFFFFFFFF AND PUSH20 0xFFFFFFFFFFFFFFFFFFFFFFFFFFFFFFFFFFFFFFFF AND PUSH2 0x8FC DUP3 PUSH1 0x1 ADD SLOAD SWAP1 DUP2 ISZERO MUL SWAP1 PUSH1 0x40 MLOAD PUSH1 0x0 PUSH1 0x40 MLOAD DUP1 DUP4 SUB DUP2 DUP6 DUP9 DUP9 CALL SWAP4 POP POP POP POP ISZERO DUP1 ISZERO PUSH2 0x329 JUMPI RETURNDATASIZE PUSH1 0x0 DUP1 RETURNDATACOPY RETURNDATASIZE PUSH1 0x0 REVERT JUMPDEST POP POP POP JUMP JUMPDEST PUSH1 0x3 PUSH1 0x20 MSTORE DUP1 PUSH1 0x0 MSTORE PUSH1 0x40 PUSH1 0x0 KECCAK256 PUSH1 0x0 SWAP2 POP SLOAD SWAP1 PUSH2 0x100 EXP SWAP1 DIV PUSH1 0xFF AND DUP2 JUMP JUMPDEST PUSH1 0x1 PUSH1 0x0 SWAP1 SLOAD SWAP1 PUSH2 0x100 EXP SWAP1 DIV PUSH20 0xFFFFFFFFFFFFFFFFFFFFFFFFFFFFFFFFFFFFFFFF AND PUSH20 0xFFFFFFFFFFFFFFFFFFFFFFFFFFFFFFFFFFFFFFFF AND CALLER PUSH20 0xFFFFFFFFFFFFFFFFFFFFFFFFFFFFFFFFFFFFFFFF AND EQ PUSH2 0x3A8 JUMPI PUSH1 0x0 DUP1 REVERT JUMPDEST PUSH1 0x0 DUP1 PUSH1 0x1 DUP2 PUSH1 0x1 DUP2 SLOAD ADD DUP1 DUP3 SSTORE DUP1 SWAP2 POP POP SUB SWAP1 PUSH1 0x0 MSTORE PUSH1 0x20 PUSH1 0x0 KECCAK256 SWAP1 PUSH1 0x5 MUL ADD SWAP1 POP DUP3 DUP2 PUSH1 0x0 ADD SWAP1 DUP1 MLOAD SWAP1 PUSH1 0x20 ADD SWAP1 PUSH2 0x3E3 SWAP3 SWAP2 SWAP1 PUSH2 0x756 JUMP JUMPDEST POP DUP4 DUP2 PUSH1 0x1 ADD DUP2 SWAP1 SSTORE POP DUP2 DUP2 PUSH1 0x2 ADD PUSH1 0x0 PUSH2 0x100 EXP DUP2 SLOAD DUP2 PUSH20 0xFFFFFFFFFFFFFFFFFFFFFFFFFFFFFFFFFFFFFFFF MUL NOT AND SWAP1 DUP4 PUSH20 0xFFFFFFFFFFFFFFFFFFFFFFFFFFFFFFFFFFFFFFFF AND MUL OR SWAP1 SSTORE POP PUSH1 0x0 DUP2 PUSH1 0x2 ADD PUSH1 0x14 PUSH2 0x100 EXP DUP2 SLOAD DUP2 PUSH1 0xFF MUL NOT AND SWAP1 DUP4 ISZERO ISZERO MUL OR SWAP1 SSTORE POP PUSH1 0x0 DUP2 PUSH1 0x3 ADD DUP2 SWAP1 SSTORE POP POP POP POP POP JUMP JUMPDEST PUSH1 0x0 DUP2 DUP2 SLOAD DUP2 LT PUSH2 0x46D JUMPI PUSH1 0x0 DUP1 REVERT JUMPDEST SWAP1 PUSH1 0x0 MSTORE PUSH1 0x20 PUSH1 0x0 KECCAK256 SWAP1 PUSH1 0x5 MUL ADD PUSH1 0x0 SWAP2 POP SWAP1 POP DUP1 PUSH1 0x0 ADD DUP1 SLOAD PUSH2 0x490 SWAP1 PUSH2 0xD56 JUMP JUMPDEST DUP1 PUSH1 0x1F ADD PUSH1 0x20 DUP1 SWAP2 DIV MUL PUSH1 0x20 ADD PUSH1 0x40 MLOAD SWAP1 DUP2 ADD PUSH1 0x40 MSTORE DUP1 SWAP3 SWAP2 SWAP1 DUP2 DUP2 MSTORE PUSH1 0x20 ADD DUP3 DUP1 SLOAD PUSH2 0x4BC SWAP1 PUSH2 0xD56 JUMP JUMPDEST DUP1 ISZERO PUSH2 0x509 JUMPI DUP1 PUSH1 0x1F LT PUSH2 0x4DE JUMPI PUSH2 0x100 DUP1 DUP4 SLOAD DIV MUL DUP4 MSTORE SWAP2 PUSH1 0x20 ADD SWAP2 PUSH2 0x509 JUMP JUMPDEST DUP3 ADD SWAP2 SWAP1 PUSH1 0x0 MSTORE PUSH1 0x20 PUSH1 0x0 KECCAK256 SWAP1 JUMPDEST DUP2 SLOAD DUP2 MSTORE SWAP1 PUSH1 0x1 ADD SWAP1 PUSH1 0x20 ADD DUP1 DUP4 GT PUSH2 0x4EC JUMPI DUP3 SWAP1 SUB PUSH1 0x1F AND DUP3 ADD SWAP2 JUMPDEST POP POP POP POP POP SWAP1 DUP1 PUSH1 0x1 ADD SLOAD SWAP1 DUP1 PUSH1 0x2 ADD PUSH1 0x0 SWAP1 SLOAD SWAP1 PUSH2 0x100 EXP SWAP1 DIV PUSH20 0xFFFFFFFFFFFFFFFFFFFFFFFFFFFFFFFFFFFFFFFF AND SWAP1 DUP1 PUSH1 0x2 ADD PUSH1 0x14 SWAP1 SLOAD SWAP1 PUSH2 0x100 EXP SWAP1 DIV PUSH1 0xFF AND SWAP1 DUP1 PUSH1 0x3 ADD SLOAD SWAP1 POP DUP6 JUMP JUMPDEST PUSH1 0x4 SLOAD DUP2 JUMP JUMPDEST PUSH1 0x1 PUSH1 0x0 SWAP1 SLOAD SWAP1 PUSH2 0x100 EXP SWAP1 DIV PUSH20 0xFFFFFFFFFFFFFFFFFFFFFFFFFFFFFFFFFFFFFFFF AND DUP2 JUMP JUMPDEST PUSH1 0x2 SLOAD DUP2 JUMP JUMPDEST PUSH1 0x2 SLOAD CALLVALUE GT PUSH2 0x598 JUMPI PUSH1 0x0 DUP1 REVERT JUMPDEST PUSH1 0x1 PUSH1 0x3 PUSH1 0x0 CALLER PUSH20 0xFFFFFFFFFFFFFFFFFFFFFFFFFFFFFFFFFFFFFFFF AND PUSH20 0xFFFFFFFFFFFFFFFFFFFFFFFFFFFFFFFFFFFFFFFF AND DUP2 MSTORE PUSH1 0x20 ADD SWAP1 DUP2 MSTORE PUSH1 0x20 ADD PUSH1 0x0 KECCAK256 PUSH1 0x0 PUSH2 0x100 EXP DUP2 SLOAD DUP2 PUSH1 0xFF MUL NOT AND SWAP1 DUP4 ISZERO ISZERO MUL OR SWAP1 SSTORE POP PUSH1 0x4 PUSH1 0x0 DUP2 SLOAD DUP1 SWAP3 SWAP2 SWAP1 PUSH2 0x603 SWAP1 PUSH2 0xD88 JUMP JUMPDEST SWAP2 SWAP1 POP SSTORE POP JUMP JUMPDEST PUSH1 0x0 DUP1 DUP3 DUP2 SLOAD DUP2 LT PUSH2 0x61F JUMPI PUSH2 0x61E PUSH2 0xC69 JUMP JUMPDEST JUMPDEST SWAP1 PUSH1 0x0 MSTORE PUSH1 0x20 PUSH1 0x0 KECCAK256 SWAP1 PUSH1 0x5 MUL ADD SWAP1 POP PUSH1 0x3 PUSH1 0x0 CALLER PUSH20 0xFFFFFFFFFFFFFFFFFFFFFFFFFFFFFFFFFFFFFFFF AND PUSH20 0xFFFFFFFFFFFFFFFFFFFFFFFFFFFFFFFFFFFFFFFF AND DUP2 MSTORE PUSH1 0x20 ADD SWAP1 DUP2 MSTORE PUSH1 0x20 ADD PUSH1 0x0 KECCAK256 PUSH1 0x0 SWAP1 SLOAD SWAP1 PUSH2 0x100 EXP SWAP1 DIV PUSH1 0xFF AND PUSH2 0x685 JUMPI PUSH1 0x0 DUP1 REVERT JUMPDEST DUP1 PUSH1 0x4 ADD PUSH1 0x0 CALLER PUSH20 0xFFFFFFFFFFFFFFFFFFFFFFFFFFFFFFFFFFFFFFFF AND PUSH20 0xFFFFFFFFFFFFFFFFFFFFFFFFFFFFFFFFFFFFFFFF AND DUP2 MSTORE PUSH1 0x20 ADD SWAP1 DUP2 MSTORE PUSH1 0x20 ADD PUSH1 0x0 KECCAK256 PUSH1 0x0 SWAP1 SLOAD SWAP1 PUSH2 0x100 EXP SWAP1 DIV PUSH1 0xFF AND ISZERO PUSH2 0x6DE JUMPI PUSH1 0x0 DUP1 REVERT JUMPDEST PUSH1 0x1 DUP2 PUSH1 0x4 ADD PUSH1 0x0 CALLER PUSH20 0xFFFFFFFFFFFFFFFFFFFFFFFFFFFFFFFFFFFFFFFF AND PUSH20 0xFFFFFFFFFFFFFFFFFFFFFFFFFFFFFFFFFFFFFFFF AND DUP2 MSTORE PUSH1 0x20 ADD SWAP1 DUP2 MSTORE PUSH1 0x20 ADD PUSH1 0x0 KECCAK256 PUSH1 0x0 PUSH2 0x100 EXP DUP2 SLOAD DUP2 PUSH1 0xFF MUL NOT AND SWAP1 DUP4 ISZERO ISZERO MUL OR SWAP1 SSTORE POP DUP1 PUSH1 0x3 ADD PUSH1 0x0 DUP2 SLOAD DUP1 SWAP3 SWAP2 SWAP1 PUSH2 0x74D SWAP1 PUSH2 0xD88 JUMP JUMPDEST SWAP2 SWAP1 POP SSTORE POP POP POP JUMP JUMPDEST DUP3 DUP1 SLOAD PUSH2 0x762 SWAP1 PUSH2 0xD56 JUMP JUMPDEST SWAP1 PUSH1 0x0 MSTORE PUSH1 0x20 PUSH1 0x0 KECCAK256 SWAP1 PUSH1 0x1F ADD PUSH1 0x20 SWAP1 DIV DUP2 ADD SWAP3 DUP3 PUSH2 0x784 JUMPI PUSH1 0x0 DUP6 SSTORE PUSH2 0x7CB JUMP JUMPDEST DUP3 PUSH1 0x1F LT PUSH2 0x79D JUMPI DUP1 MLOAD PUSH1 0xFF NOT AND DUP4 DUP1 ADD OR DUP6 SSTORE PUSH2 0x7CB JUMP JUMPDEST DUP3 DUP1 ADD PUSH1 0x1 ADD DUP6 SSTORE DUP3 ISZERO PUSH2 0x7CB JUMPI SWAP2 DUP3 ADD JUMPDEST DUP3 DUP2 GT ISZERO PUSH2 0x7CA JUMPI DUP3 MLOAD DUP3 SSTORE SWAP2 PUSH1 0x20 ADD SWAP2 SWAP1 PUSH1 0x1 ADD SWAP1 PUSH2 0x7AF JUMP JUMPDEST JUMPDEST POP SWAP1 POP PUSH2 0x7D8 SWAP2 SWAP1 PUSH2 0x7DC JUMP JUMPDEST POP SWAP1 JUMP JUMPDEST JUMPDEST DUP1 DUP3 GT ISZERO PUSH2 0x7F5 JUMPI PUSH1 0x0 DUP2 PUSH1 0x0 SWAP1 SSTORE POP PUSH1 0x1 ADD PUSH2 0x7DD JUMP JUMPDEST POP SWAP1 JUMP JUMPDEST PUSH1 0x0 PUSH1 0x40 MLOAD SWAP1 POP SWAP1 JUMP JUMPDEST PUSH1 0x0 DUP1 REVERT JUMPDEST PUSH1 0x0 DUP1 REVERT JUMPDEST PUSH1 0x0 DUP2 SWAP1 POP SWAP2 SWAP1 POP JUMP JUMPDEST PUSH2 0x820 DUP2 PUSH2 0x80D JUMP JUMPDEST DUP2 EQ PUSH2 0x82B JUMPI PUSH1 0x0 DUP1 REVERT JUMPDEST POP JUMP JUMPDEST PUSH1 0x0 DUP2 CALLDATALOAD SWAP1 POP PUSH2 0x83D DUP2 PUSH2 0x817 JUMP JUMPDEST SWAP3 SWAP2 POP POP JUMP JUMPDEST PUSH1 0x0 PUSH1 0x20 DUP3 DUP5 SUB SLT ISZERO PUSH2 0x859 JUMPI PUSH2 0x858 PUSH2 0x803 JUMP JUMPDEST JUMPDEST PUSH1 0x0 PUSH2 0x867 DUP5 DUP3 DUP6 ADD PUSH2 0x82E JUMP JUMPDEST SWAP2 POP POP SWAP3 SWAP2 POP POP JUMP JUMPDEST PUSH1 0x0 PUSH20 0xFFFFFFFFFFFFFFFFFFFFFFFFFFFFFFFFFFFFFFFF DUP3 AND SWAP1 POP SWAP2 SWAP1 POP JUMP JUMPDEST PUSH1 0x0 PUSH2 0x89B DUP3 PUSH2 0x870 JUMP JUMPDEST SWAP1 POP SWAP2 SWAP1 POP JUMP JUMPDEST PUSH2 0x8AB DUP2 PUSH2 0x890 JUMP JUMPDEST DUP2 EQ PUSH2 0x8B6 JUMPI PUSH1 0x0 DUP1 REVERT JUMPDEST POP JUMP JUMPDEST PUSH1 0x0 DUP2 CALLDATALOAD SWAP1 POP PUSH2 0x8C8 DUP2 PUSH2 0x8A2 JUMP JUMPDEST SWAP3 SWAP2 POP POP JUMP JUMPDEST PUSH1 0x0 PUSH1 0x20 DUP3 DUP5 SUB SLT ISZERO PUSH2 0x8E4 JUMPI PUSH2 0x8E3 PUSH2 0x803 JUMP JUMPDEST JUMPDEST PUSH1 0x0 PUSH2 0x8F2 DUP5 DUP3 DUP6 ADD PUSH2 0x8B9 JUMP JUMPDEST SWAP2 POP POP SWAP3 SWAP2 POP POP JUMP JUMPDEST PUSH1 0x0 DUP2 ISZERO ISZERO SWAP1 POP SWAP2 SWAP1 POP JUMP JUMPDEST PUSH2 0x910 DUP2 PUSH2 0x8FB JUMP JUMPDEST DUP3 MSTORE POP POP JUMP JUMPDEST PUSH1 0x0 PUSH1 0x20 DUP3 ADD SWAP1 POP PUSH2 0x92B PUSH1 0x0 DUP4 ADD DUP5 PUSH2 0x907 JUMP JUMPDEST SWAP3 SWAP2 POP POP JUMP JUMPDEST PUSH1 0x0 DUP1 REVERT JUMPDEST PUSH1 0x0 DUP1 REVERT JUMPDEST PUSH1 0x0 PUSH1 0x1F NOT PUSH1 0x1F DUP4 ADD AND SWAP1 POP SWAP2 SWAP1 POP JUMP JUMPDEST PUSH32 0x4E487B7100000000000000000000000000000000000000000000000000000000 PUSH1 0x0 MSTORE PUSH1 0x41 PUSH1 0x4 MSTORE PUSH1 0x24 PUSH1 0x0 REVERT JUMPDEST PUSH2 0x984 DUP3 PUSH2 0x93B JUMP JUMPDEST DUP2 ADD DUP2 DUP2 LT PUSH8 0xFFFFFFFFFFFFFFFF DUP3 GT OR ISZERO PUSH2 0x9A3 JUMPI PUSH2 0x9A2 PUSH2 0x94C JUMP JUMPDEST JUMPDEST DUP1 PUSH1 0x40 MSTORE POP POP POP JUMP JUMPDEST PUSH1 0x0 PUSH2 0x9B6 PUSH2 0x7F9 JUMP JUMPDEST SWAP1 POP PUSH2 0x9C2 DUP3 DUP3 PUSH2 0x97B JUMP JUMPDEST SWAP2 SWAP1 POP JUMP JUMPDEST PUSH1 0x0 PUSH8 0xFFFFFFFFFFFFFFFF DUP3 GT ISZERO PUSH2 0x9E2 JUMPI PUSH2 0x9E1 PUSH2 0x94C JUMP JUMPDEST JUMPDEST PUSH2 0x9EB DUP3 PUSH2 0x93B JUMP JUMPDEST SWAP1 POP PUSH1 0x20 DUP2 ADD SWAP1 POP SWAP2 SWAP1 POP JUMP JUMPDEST DUP3 DUP2 DUP4 CALLDATACOPY PUSH1 0x0 DUP4 DUP4 ADD MSTORE POP POP POP JUMP JUMPDEST PUSH1 0x0 PUSH2 0xA1A PUSH2 0xA15 DUP5 PUSH2 0x9C7 JUMP JUMPDEST PUSH2 0x9AC JUMP JUMPDEST SWAP1 POP DUP3 DUP2 MSTORE PUSH1 0x20 DUP2 ADD DUP5 DUP5 DUP5 ADD GT ISZERO PUSH2 0xA36 JUMPI PUSH2 0xA35 PUSH2 0x936 JUMP JUMPDEST JUMPDEST PUSH2 0xA41 DUP5 DUP3 DUP6 PUSH2 0x9F8 JUMP JUMPDEST POP SWAP4 SWAP3 POP POP POP JUMP JUMPDEST PUSH1 0x0 DUP3 PUSH1 0x1F DUP4 ADD SLT PUSH2 0xA5E JUMPI PUSH2 0xA5D PUSH2 0x931 JUMP JUMPDEST JUMPDEST DUP2 CALLDATALOAD PUSH2 0xA6E DUP5 DUP3 PUSH1 0x20 DUP7 ADD PUSH2 0xA07 JUMP JUMPDEST SWAP2 POP POP SWAP3 SWAP2 POP POP JUMP JUMPDEST PUSH1 0x0 PUSH2 0xA82 DUP3 PUSH2 0x870 JUMP JUMPDEST SWAP1 POP SWAP2 SWAP1 POP JUMP JUMPDEST PUSH2 0xA92 DUP2 PUSH2 0xA77 JUMP JUMPDEST DUP2 EQ PUSH2 0xA9D JUMPI PUSH1 0x0 DUP1 REVERT JUMPDEST POP JUMP JUMPDEST PUSH1 0x0 DUP2 CALLDATALOAD SWAP1 POP PUSH2 0xAAF DUP2 PUSH2 0xA89 JUMP JUMPDEST SWAP3 SWAP2 POP POP JUMP JUMPDEST PUSH1 0x0 DUP1 PUSH1 0x0 PUSH1 0x60 DUP5 DUP7 SUB SLT ISZERO PUSH2 0xACE JUMPI PUSH2 0xACD PUSH2 0x803 JUMP JUMPDEST JUMPDEST PUSH1 0x0 PUSH2 0xADC DUP7 DUP3 DUP8 ADD PUSH2 0x82E JUMP JUMPDEST SWAP4 POP POP PUSH1 0x20 DUP5 ADD CALLDATALOAD PUSH8 0xFFFFFFFFFFFFFFFF DUP2 GT ISZERO PUSH2 0xAFD JUMPI PUSH2 0xAFC PUSH2 0x808 JUMP JUMPDEST JUMPDEST PUSH2 0xB09 DUP7 DUP3 DUP8 ADD PUSH2 0xA49 JUMP JUMPDEST SWAP3 POP POP PUSH1 0x40 PUSH2 0xB1A DUP7 DUP3 DUP8 ADD PUSH2 0xAA0 JUMP JUMPDEST SWAP2 POP POP SWAP3 POP SWAP3 POP SWAP3 JUMP JUMPDEST PUSH1 0x0 DUP2 MLOAD SWAP1 POP SWAP2 SWAP1 POP JUMP JUMPDEST PUSH1 0x0 DUP3 DUP3 MSTORE PUSH1 0x20 DUP3 ADD SWAP1 POP SWAP3 SWAP2 POP POP JUMP JUMPDEST PUSH1 0x0 JUMPDEST DUP4 DUP2 LT ISZERO PUSH2 0xB5E JUMPI DUP1 DUP3 ADD MLOAD DUP2 DUP5 ADD MSTORE PUSH1 0x20 DUP2 ADD SWAP1 POP PUSH2 0xB43 JUMP JUMPDEST DUP4 DUP2 GT ISZERO PUSH2 0xB6D JUMPI PUSH1 0x0 DUP5 DUP5 ADD MSTORE JUMPDEST POP POP POP POP JUMP JUMPDEST PUSH1 0x0 PUSH2 0xB7E DUP3 PUSH2 0xB24 JUMP JUMPDEST PUSH2 0xB88 DUP2 DUP6 PUSH2 0xB2F JUMP JUMPDEST SWAP4 POP PUSH2 0xB98 DUP2 DUP6 PUSH1 0x20 DUP7 ADD PUSH2 0xB40 JUMP JUMPDEST PUSH2 0xBA1 DUP2 PUSH2 0x93B JUMP JUMPDEST DUP5 ADD SWAP2 POP POP SWAP3 SWAP2 POP POP JUMP JUMPDEST PUSH2 0xBB5 DUP2 PUSH2 0x80D JUMP JUMPDEST DUP3 MSTORE POP POP JUMP JUMPDEST PUSH2 0xBC4 DUP2 PUSH2 0xA77 JUMP JUMPDEST DUP3 MSTORE POP POP JUMP JUMPDEST PUSH1 0x0 PUSH1 0xA0 DUP3 ADD SWAP1 POP DUP2 DUP2 SUB PUSH1 0x0 DUP4 ADD MSTORE PUSH2 0xBE4 DUP2 DUP9 PUSH2 0xB73 JUMP JUMPDEST SWAP1 POP PUSH2 0xBF3 PUSH1 0x20 DUP4 ADD DUP8 PUSH2 0xBAC JUMP JUMPDEST PUSH2 0xC00 PUSH1 0x40 DUP4 ADD DUP7 PUSH2 0xBBB JUMP JUMPDEST PUSH2 0xC0D PUSH1 0x60 DUP4 ADD DUP6 PUSH2 0x907 JUMP JUMPDEST PUSH2 0xC1A PUSH1 0x80 DUP4 ADD DUP5 PUSH2 0xBAC JUMP JUMPDEST SWAP7 SWAP6 POP POP POP POP POP POP JUMP JUMPDEST PUSH1 0x0 PUSH1 0x20 DUP3 ADD SWAP1 POP PUSH2 0xC39 PUSH1 0x0 DUP4 ADD DUP5 PUSH2 0xBAC JUMP JUMPDEST SWAP3 SWAP2 POP POP JUMP JUMPDEST PUSH2 0xC48 DUP2 PUSH2 0x890 JUMP JUMPDEST DUP3 MSTORE POP POP JUMP JUMPDEST PUSH1 0x0 PUSH1 0x20 DUP3 ADD SWAP1 POP PUSH2 0xC63 PUSH1 0x0 DUP4 ADD DUP5 PUSH2 0xC3F JUMP JUMPDEST SWAP3 SWAP2 POP POP JUMP JUMPDEST PUSH32 0x4E487B7100000000000000000000000000000000000000000000000000000000 PUSH1 0x0 MSTORE PUSH1 0x32 PUSH1 0x4 MSTORE PUSH1 0x24 PUSH1 0x0 REVERT JUMPDEST PUSH32 0x4E487B7100000000000000000000000000000000000000000000000000000000 PUSH1 0x0 MSTORE PUSH1 0x12 PUSH1 0x4 MSTORE PUSH1 0x24 PUSH1 0x0 REVERT JUMPDEST PUSH32 0x4E487B7100000000000000000000000000000000000000000000000000000000 PUSH1 0x0 MSTORE PUSH1 0x11 PUSH1 0x4 MSTORE PUSH1 0x24 PUSH1 0x0 REVERT JUMPDEST PUSH1 0x0 PUSH2 0xD01 DUP3 PUSH2 0x80D JUMP JUMPDEST SWAP2 POP PUSH2 0xD0C DUP4 PUSH2 0x80D JUMP JUMPDEST SWAP3 POP DUP3 PUSH2 0xD1C JUMPI PUSH2 0xD1B PUSH2 0xC98 JUMP JUMPDEST JUMPDEST DUP3 DUP3 DIV SWAP1 POP SWAP3 SWAP2 POP POP JUMP JUMPDEST PUSH32 0x4E487B7100000000000000000000000000000000000000000000000000000000 PUSH1 0x0 MSTORE PUSH1 0x22 PUSH1 0x4 MSTORE PUSH1 0x24 PUSH1 0x0 REVERT JUMPDEST PUSH1 0x0 PUSH1 0x2 DUP3 DIV SWAP1 POP PUSH1 0x1 DUP3 AND DUP1 PUSH2 0xD6E JUMPI PUSH1 0x7F DUP3 AND SWAP2 POP JUMPDEST PUSH1 0x20 DUP3 LT DUP2 EQ ISZERO PUSH2 0xD82 JUMPI PUSH2 0xD81 PUSH2 0xD27 JUMP JUMPDEST JUMPDEST POP SWAP2 SWAP1 POP JUMP JUMPDEST PUSH1 0x0 PUSH2 0xD93 DUP3 PUSH2 0x80D JUMP JUMPDEST SWAP2 POP PUSH32 0xFFFFFFFFFFFFFFFFFFFFFFFFFFFFFFFFFFFFFFFFFFFFFFFFFFFFFFFFFFFFFFFF DUP3 EQ ISZERO PUSH2 0xDC6 JUMPI PUSH2 0xDC5 PUSH2 0xCC7 JUMP JUMPDEST JUMPDEST PUSH1 0x1 DUP3 ADD SWAP1 POP SWAP2 SWAP1 POP JUMP INVALID LOG2 PUSH5 0x6970667358 0x22 SLT KECCAK256 BLOCKHASH 0xC4 0x4F 0xEA LOG4 PUSH3 0x583079 BASEFEE 0xA7 AND CODESIZE DUP14 SLOAD 0xC8 PUSH1 0xC PUSH29 0x951D35F8F3448DCBB8B6BD22D364736F6C634300080900330000000000 "},"gasEstimates":{"creation":{"codeDepositCost":"718200","executionCost":"infinite","totalCost":"infinite"},"external":{"approveRequest(uint256)":"infinite","approvers(address)":"2868","approversCount()":"2429","contribute()":"51024","finalizeRequest(uint256)":"infinite","minContribution()":"2473","owner()":"2536","requests(uint256)":"infinite","spendRequest(uint256,string,address)":"infinite"}},"methodIdentifiers":{"approveRequest(uint256)":"d7d1bbdb","approvers(address)":"0a144391","approversCount()":"82fde093","contribute()":"d7bb99ba","finalizeRequest(uint256)":"03441006","minContribution()":"aaffadf3","owner()":"8da5cb5b","requests(uint256)":"81d12c58","spendRequest(uint256,string,address)":"7d5cadd2"}},"storageLayout":{"storage":[{"astId":58,"contract":"campaign.sol:Campaign","label":"requests","offset":0,"slot":"0","type":"t_array(t_struct(Request)54_storage)dyn_storage"},{"astId":60,"contract":"campaign.sol:Campaign","label":"owner","offset":0,"slot":"1","type":"t_address"},{"astId":62,"contract":"campaign.sol:Campaign","label":"minContribution","offset":0,"slot":"2","type":"t_uint256"},{"astId":66,"contract":"campaign.sol:Campaign","label":"approvers","offset":0,"slot":"3","type":"t_mapping(t_address,t_bool)"},{"astId":68,"contract":"campaign.sol:Campaign","label":"approversCount","offset":0,"slot":"4","type":"t_uint256"}],"types":{"t_address":{"encoding":"inplace","label":"address","numberOfBytes":"20"},"t_address_payable":{"encoding":"inplace","label":"address payable","numberOfBytes":"20"},"t_array(t_struct(Request)54_storage)dyn_storage":{"base":"t_struct(Request)54_storage","encoding":"dynamic_array","label":"struct Campaign.Request[]","numberOfBytes":"32"},"t_bool":{"encoding":"inplace","label":"bool","numberOfBytes":"1"},"t_mapping(t_address,t_bool)":{"encoding":"mapping","key":"t_address","label":"mapping(address => bool)","numberOfBytes":"32","value":"t_bool"},"t_string_storage":{"encoding":"bytes","label":"string","numberOfBytes":"32"},"t_struct(Request)54_storage":{"encoding":"inplace","label":"struct Campaign.Request","members":[{"astId":41,"contract":"campaign.sol:Campaign","label":"description","offset":0,"slot":"0","type":"t_string_storage"},{"astId":43,"contract":"campaign.sol:Campaign","label":"value","offset":0,"slot":"1","type":"t_uint256"},{"astId":45,"contract":"campaign.sol:Campaign","label":"recipient","offset":0,"slot":"2","type":"t_address_payable"},{"astId":47,"contract":"campaign.sol:Campaign","label":"completed","offset":20,"slot":"2","type":"t_bool"},{"astId":49,"contract":"campaign.sol:Campaign","label":"approvalCount","offset":0,"slot":"3","type":"t_uint256"},{"astId":53,"contract":"campaign.sol:Campaign","label":"approval","offset":0,"slot":"4","type":"t_mapping(t_address,t_bool)"}],"numberOfBytes":"160"},"t_uint256":{"encoding":"inplace","label":"uint256","numberOfBytes":"32"}}},"userdoc":{"kind":"user","methods":{},"version":1}}